{
  "contractName": "Lottery",
  "abi": [
    {
      "inputs": [
        {
          "internalType": "uint64",
          "name": "_subscriptionId",
          "type": "uint64"
        },
        {
          "internalType": "address",
          "name": "_cordinatorAddress",
          "type": "address"
        },
        {
          "internalType": "bytes32",
          "name": "_keyHash",
          "type": "bytes32"
        },
        {
          "internalType": "string",
          "name": "_name",
          "type": "string"
        },
        {
          "internalType": "uint256",
          "name": "_ticketPrice",
          "type": "uint256"
        },
        {
          "internalType": "uint32",
          "name": "_minTicket",
          "type": "uint32"
        },
        {
          "internalType": "uint256",
          "name": "_fee",
          "type": "uint256"
        }
      ],
      "stateMutability": "nonpayable",
      "type": "constructor"
    },
    {
      "inputs": [
        {
          "internalType": "address",
          "name": "have",
          "type": "address"
        },
        {
          "internalType": "address",
          "name": "want",
          "type": "address"
        }
      ],
      "name": "OnlyCoordinatorCanFulfill",
      "type": "error"
    },
    {
      "anonymous": false,
      "inputs": [
        {
          "indexed": true,
          "internalType": "address",
          "name": "owner",
          "type": "address"
        },
        {
          "indexed": false,
          "internalType": "string",
          "name": "name",
          "type": "string"
        },
        {
          "indexed": false,
          "internalType": "uint256",
          "name": "ticketPrize",
          "type": "uint256"
        },
        {
          "indexed": false,
          "internalType": "uint256",
          "name": "fee",
          "type": "uint256"
        },
        {
          "indexed": false,
          "internalType": "uint32",
          "name": "minTicket",
          "type": "uint32"
        },
        {
          "indexed": false,
          "internalType": "uint256",
          "name": "configFinishTime",
          "type": "uint256"
        },
        {
          "indexed": false,
          "internalType": "uint256",
          "name": "configTimeToClaim",
          "type": "uint256"
        }
      ],
      "name": "ChangedProperties",
      "type": "event"
    },
    {
      "anonymous": false,
      "inputs": [
        {
          "indexed": true,
          "internalType": "address",
          "name": "winner",
          "type": "address"
        },
        {
          "indexed": false,
          "internalType": "address",
          "name": "owner",
          "type": "address"
        },
        {
          "indexed": false,
          "internalType": "uint256",
          "name": "lotteryIndex",
          "type": "uint256"
        },
        {
          "indexed": false,
          "internalType": "uint256",
          "name": "totalPrize",
          "type": "uint256"
        }
      ],
      "name": "ClaimedExpiredPrize",
      "type": "event"
    },
    {
      "anonymous": false,
      "inputs": [
        {
          "indexed": true,
          "internalType": "address",
          "name": "winner",
          "type": "address"
        },
        {
          "indexed": false,
          "internalType": "uint256",
          "name": "lotteryIndex",
          "type": "uint256"
        },
        {
          "indexed": false,
          "internalType": "uint256",
          "name": "totalPrize",
          "type": "uint256"
        },
        {
          "indexed": false,
          "internalType": "uint256",
          "name": "fee",
          "type": "uint256"
        }
      ],
      "name": "ClaimedPrize",
      "type": "event"
    },
    {
      "anonymous": false,
      "inputs": [
        {
          "indexed": false,
          "internalType": "address",
          "name": "owner",
          "type": "address"
        },
        {
          "indexed": false,
          "internalType": "uint256",
          "name": "totalValue",
          "type": "uint256"
        },
        {
          "indexed": false,
          "internalType": "uint256",
          "name": "ticketAmount",
          "type": "uint256"
        }
      ],
      "name": "LotteryFinalized",
      "type": "event"
    },
    {
      "anonymous": false,
      "inputs": [
        {
          "indexed": false,
          "internalType": "uint256",
          "name": "ticketNumber",
          "type": "uint256"
        },
        {
          "indexed": false,
          "internalType": "uint32",
          "name": "minTickets",
          "type": "uint32"
        },
        {
          "indexed": false,
          "internalType": "uint256",
          "name": "balance",
          "type": "uint256"
        },
        {
          "indexed": false,
          "internalType": "uint256",
          "name": "finishTime",
          "type": "uint256"
        }
      ],
      "name": "MinTicketsReached",
      "type": "event"
    },
    {
      "anonymous": false,
      "inputs": [
        {
          "indexed": true,
          "internalType": "address",
          "name": "previousOwner",
          "type": "address"
        },
        {
          "indexed": true,
          "internalType": "address",
          "name": "newOwner",
          "type": "address"
        }
      ],
      "name": "OwnershipTransferred",
      "type": "event"
    },
    {
      "anonymous": false,
      "inputs": [
        {
          "indexed": false,
          "internalType": "uint256",
          "name": "requestId",
          "type": "uint256"
        },
        {
          "indexed": false,
          "internalType": "uint256[]",
          "name": "randomWords",
          "type": "uint256[]"
        }
      ],
      "name": "RequestFulfilled",
      "type": "event"
    },
    {
      "anonymous": false,
      "inputs": [
        {
          "indexed": false,
          "internalType": "uint256",
          "name": "requestId",
          "type": "uint256"
        },
        {
          "indexed": false,
          "internalType": "uint32",
          "name": "numWords",
          "type": "uint32"
        }
      ],
      "name": "RequestSent",
      "type": "event"
    },
    {
      "anonymous": false,
      "inputs": [
        {
          "indexed": true,
          "internalType": "address",
          "name": "buyer",
          "type": "address"
        },
        {
          "indexed": false,
          "internalType": "uint256",
          "name": "price",
          "type": "uint256"
        },
        {
          "indexed": false,
          "internalType": "uint256",
          "name": "ticketNumber",
          "type": "uint256"
        }
      ],
      "name": "TicketBought",
      "type": "event"
    },
    {
      "inputs": [],
      "name": "configFinishTime",
      "outputs": [
        {
          "internalType": "uint256",
          "name": "",
          "type": "uint256"
        }
      ],
      "stateMutability": "view",
      "type": "function",
      "constant": true
    },
    {
      "inputs": [],
      "name": "configTimeToClaim",
      "outputs": [
        {
          "internalType": "uint256",
          "name": "",
          "type": "uint256"
        }
      ],
      "stateMutability": "view",
      "type": "function",
      "constant": true
    },
    {
      "inputs": [],
      "name": "fee",
      "outputs": [
        {
          "internalType": "uint256",
          "name": "",
          "type": "uint256"
        }
      ],
      "stateMutability": "view",
      "type": "function",
      "constant": true
    },
    {
      "inputs": [
        {
          "internalType": "uint256",
          "name": "_requestId",
          "type": "uint256"
        }
      ],
      "name": "getRequestStatus",
      "outputs": [
        {
          "internalType": "bool",
          "name": "fulfilled",
          "type": "bool"
        },
        {
          "internalType": "uint256[]",
          "name": "randomWords",
          "type": "uint256[]"
        }
      ],
      "stateMutability": "view",
      "type": "function",
      "constant": true
    },
    {
      "inputs": [],
      "name": "lastRequestId",
      "outputs": [
        {
          "internalType": "uint256",
          "name": "",
          "type": "uint256"
        }
      ],
      "stateMutability": "view",
      "type": "function",
      "constant": true
    },
    {
      "inputs": [],
      "name": "lotteryId",
      "outputs": [
        {
          "internalType": "uint256",
          "name": "_value",
          "type": "uint256"
        }
      ],
      "stateMutability": "view",
      "type": "function",
      "constant": true
    },
    {
      "inputs": [],
      "name": "lotteryName",
      "outputs": [
        {
          "internalType": "string",
          "name": "",
          "type": "string"
        }
      ],
      "stateMutability": "view",
      "type": "function",
      "constant": true
    },
    {
      "inputs": [],
      "name": "minTicket",
      "outputs": [
        {
          "internalType": "uint32",
          "name": "",
          "type": "uint32"
        }
      ],
      "stateMutability": "view",
      "type": "function",
      "constant": true
    },
    {
      "inputs": [],
      "name": "owner",
      "outputs": [
        {
          "internalType": "address",
          "name": "",
          "type": "address"
        }
      ],
      "stateMutability": "view",
      "type": "function",
      "constant": true
    },
    {
      "inputs": [
        {
          "internalType": "uint256",
          "name": "requestId",
          "type": "uint256"
        },
        {
          "internalType": "uint256[]",
          "name": "randomWords",
          "type": "uint256[]"
        }
      ],
      "name": "rawFulfillRandomWords",
      "outputs": [],
      "stateMutability": "nonpayable",
      "type": "function"
    },
    {
      "inputs": [],
      "name": "renounceOwnership",
      "outputs": [],
      "stateMutability": "nonpayable",
      "type": "function"
    },
    {
      "inputs": [
        {
          "internalType": "uint256",
          "name": "",
          "type": "uint256"
        }
      ],
      "name": "requestIds",
      "outputs": [
        {
          "internalType": "uint256",
          "name": "",
          "type": "uint256"
        }
      ],
      "stateMutability": "view",
      "type": "function",
      "constant": true
    },
    {
      "inputs": [
        {
          "internalType": "uint256",
          "name": "",
          "type": "uint256"
        }
      ],
      "name": "s_requests",
      "outputs": [
        {
          "internalType": "bool",
          "name": "fulfilled",
          "type": "bool"
        },
        {
          "internalType": "bool",
          "name": "exists",
          "type": "bool"
        }
      ],
      "stateMutability": "view",
      "type": "function",
      "constant": true
    },
    {
      "inputs": [
        {
          "internalType": "uint32",
          "name": "_callBackGasLimit",
          "type": "uint32"
        }
      ],
      "name": "setCallBackGasLimit",
      "outputs": [],
      "stateMutability": "nonpayable",
      "type": "function"
    },
    {
      "inputs": [
        {
          "internalType": "bytes32",
          "name": "_keyHash",
          "type": "bytes32"
        }
      ],
      "name": "setKeyHashValue",
      "outputs": [],
      "stateMutability": "nonpayable",
      "type": "function"
    },
    {
      "inputs": [
        {
          "internalType": "uint16",
          "name": "_requestConfirmations",
          "type": "uint16"
        }
      ],
      "name": "setRequestConfirmations",
      "outputs": [],
      "stateMutability": "nonpayable",
      "type": "function"
    },
    {
      "inputs": [
        {
          "internalType": "uint64",
          "name": "_s_subscriptionId",
          "type": "uint64"
        }
      ],
      "name": "setSubscriptionId",
      "outputs": [],
      "stateMutability": "nonpayable",
      "type": "function"
    },
    {
      "inputs": [],
      "name": "ticketPrice",
      "outputs": [
        {
          "internalType": "uint256",
          "name": "",
          "type": "uint256"
        }
      ],
      "stateMutability": "view",
      "type": "function",
      "constant": true
    },
    {
      "inputs": [
        {
          "internalType": "address",
          "name": "newOwner",
          "type": "address"
        }
      ],
      "name": "transferOwnership",
      "outputs": [],
      "stateMutability": "nonpayable",
      "type": "function"
    },
    {
      "inputs": [],
      "name": "buyTicket",
      "outputs": [],
      "stateMutability": "payable",
      "type": "function",
      "payable": true
    },
    {
      "inputs": [
        {
          "internalType": "uint256",
          "name": "lotteryIndex",
          "type": "uint256"
        }
      ],
      "name": "claim",
      "outputs": [],
      "stateMutability": "nonpayable",
      "type": "function"
    },
    {
      "inputs": [
        {
          "internalType": "uint256",
          "name": "lotteryIndex",
          "type": "uint256"
        }
      ],
      "name": "claimExpiredLottery",
      "outputs": [],
      "stateMutability": "nonpayable",
      "type": "function"
    },
    {
      "inputs": [
        {
          "internalType": "string",
          "name": "_name",
          "type": "string"
        },
        {
          "internalType": "uint256",
          "name": "_ticketPrice",
          "type": "uint256"
        },
        {
          "internalType": "uint32",
          "name": "_minTicket",
          "type": "uint32"
        },
        {
          "internalType": "uint256",
          "name": "_configFinishTime",
          "type": "uint256"
        },
        {
          "internalType": "uint256",
          "name": "_configTimeToClaim",
          "type": "uint256"
        },
        {
          "internalType": "uint256",
          "name": "_fee",
          "type": "uint256"
        }
      ],
      "name": "setProperties",
      "outputs": [],
      "stateMutability": "nonpayable",
      "type": "function"
    },
    {
      "inputs": [
        {
          "internalType": "uint256",
          "name": "_lotteryId",
          "type": "uint256"
        }
      ],
      "name": "getLotteryStatus",
      "outputs": [
        {
          "components": [
            {
              "internalType": "string",
              "name": "name",
              "type": "string"
            },
            {
              "internalType": "uint256",
              "name": "ticketPrice",
              "type": "uint256"
            },
            {
              "components": [
                {
                  "internalType": "uint256",
                  "name": "_value",
                  "type": "uint256"
                }
              ],
              "internalType": "struct Counters.Counter",
              "name": "ticketsCount",
              "type": "tuple"
            },
            {
              "internalType": "uint256",
              "name": "startedTime",
              "type": "uint256"
            },
            {
              "internalType": "uint256",
              "name": "balance",
              "type": "uint256"
            },
            {
              "internalType": "bool",
              "name": "finalized",
              "type": "bool"
            },
            {
              "internalType": "uint256",
              "name": "indexChainLink",
              "type": "uint256"
            },
            {
              "internalType": "address",
              "name": "winner",
              "type": "address"
            },
            {
              "internalType": "bool",
              "name": "claimed",
              "type": "bool"
            },
            {
              "internalType": "uint32",
              "name": "minTicket",
              "type": "uint32"
            },
            {
              "internalType": "bool",
              "name": "finishTrigger",
              "type": "bool"
            },
            {
              "internalType": "uint256",
              "name": "timeToFinish",
              "type": "uint256"
            },
            {
              "internalType": "uint256",
              "name": "timeToClaim",
              "type": "uint256"
            }
          ],
          "internalType": "struct Lottery.LotteryStruct",
          "name": "_lottery",
          "type": "tuple"
        }
      ],
      "stateMutability": "view",
      "type": "function",
      "constant": true
    },
    {
      "inputs": [
        {
          "internalType": "uint256",
          "name": "_lotteryId",
          "type": "uint256"
        },
        {
          "internalType": "address",
          "name": "_user",
          "type": "address"
        }
      ],
      "name": "getUserStatus",
      "outputs": [
        {
          "components": [
            {
              "internalType": "bool",
              "name": "hasTicket",
              "type": "bool"
            },
            {
              "internalType": "bool",
              "name": "claimed",
              "type": "bool"
            },
            {
              "internalType": "uint256[]",
              "name": "tickets",
              "type": "uint256[]"
            }
          ],
          "internalType": "struct Lottery.User",
          "name": "_returnedUser",
          "type": "tuple"
        }
      ],
      "stateMutability": "view",
      "type": "function",
      "constant": true
    },
    {
      "inputs": [],
      "name": "getAllBalance",
      "outputs": [],
      "stateMutability": "nonpayable",
      "type": "function"
    },
    {
      "inputs": [
        {
          "internalType": "bytes",
          "name": "",
          "type": "bytes"
        }
      ],
      "name": "checkUpkeep",
      "outputs": [
        {
          "internalType": "bool",
          "name": "upkeepNeeded",
          "type": "bool"
        },
        {
          "internalType": "bytes",
          "name": "",
          "type": "bytes"
        }
      ],
      "stateMutability": "view",
      "type": "function",
      "constant": true
    },
    {
      "inputs": [
        {
          "internalType": "bytes",
          "name": "",
          "type": "bytes"
        }
      ],
      "name": "performUpkeep",
      "outputs": [],
      "stateMutability": "nonpayable",
      "type": "function"
    }
  ],
  "bytecode": "0x60a06040523480156200001157600080fd5b5060405162004e9338038062004e93833981810160405281019062000037919062000628565b868686818073ffffffffffffffffffffffffffffffffffffffff1660808173ffffffffffffffffffffffffffffffffffffffff16815250505062000090620000846200025a60201b60201c565b6200026260201b60201c565b6001808190555081600360006101000a81548173ffffffffffffffffffffffffffffffffffffffff021916908373ffffffffffffffffffffffffffffffffffffffff16021790555082600360146101000a81548167ffffffffffffffff021916908367ffffffffffffffff160217905550806006819055506207a120600760006101000a81548163ffffffff021916908363ffffffff1602179055506003600760046101000a81548161ffff021916908361ffff160217905550505050600062000166600b6200032660201b62001d6a1760201c565b905084600a600083815260200190815260200160002060000190816200018d91906200093b565b5083600a60008381526020019081526020016000206001018190555082600a600083815260200190815260200160002060070160156101000a81548163ffffffff021916908363ffffffff16021790555042600a60008381526020019081526020016000206003018190555081600c8190555084601190816200021191906200093b565b50610258600d81905550610258600e819055508360108190555082600f60006101000a81548163ffffffff021916908363ffffffff160217905550505050505050505062000a22565b600033905090565b60008060009054906101000a900473ffffffffffffffffffffffffffffffffffffffff169050816000806101000a81548173ffffffffffffffffffffffffffffffffffffffff021916908373ffffffffffffffffffffffffffffffffffffffff1602179055508173ffffffffffffffffffffffffffffffffffffffff168173ffffffffffffffffffffffffffffffffffffffff167f8be0079c531659141344cd1fd0a4f28419497f9722a3daafe3b4186f6b6457e060405160405180910390a35050565b600081600001549050919050565b6000604051905090565b600080fd5b600080fd5b600067ffffffffffffffff82169050919050565b620003678162000348565b81146200037357600080fd5b50565b60008151905062000387816200035c565b92915050565b600073ffffffffffffffffffffffffffffffffffffffff82169050919050565b6000620003ba826200038d565b9050919050565b620003cc81620003ad565b8114620003d857600080fd5b50565b600081519050620003ec81620003c1565b92915050565b6000819050919050565b6200040781620003f2565b81146200041357600080fd5b50565b6000815190506200042781620003fc565b92915050565b600080fd5b600080fd5b6000601f19601f8301169050919050565b7f4e487b7100000000000000000000000000000000000000000000000000000000600052604160045260246000fd5b620004828262000437565b810181811067ffffffffffffffff82111715620004a457620004a362000448565b5b80604052505050565b6000620004b962000334565b9050620004c7828262000477565b919050565b600067ffffffffffffffff821115620004ea57620004e962000448565b5b620004f58262000437565b9050602081019050919050565b60005b838110156200052257808201518184015260208101905062000505565b60008484015250505050565b6000620005456200053f84620004cc565b620004ad565b90508281526020810184848401111562000564576200056362000432565b5b6200057184828562000502565b509392505050565b600082601f8301126200059157620005906200042d565b5b8151620005a38482602086016200052e565b91505092915050565b6000819050919050565b620005c181620005ac565b8114620005cd57600080fd5b50565b600081519050620005e181620005b6565b92915050565b600063ffffffff82169050919050565b6200060281620005e7565b81146200060e57600080fd5b50565b6000815190506200062281620005f7565b92915050565b600080600080600080600060e0888a0312156200064a57620006496200033e565b5b60006200065a8a828b0162000376565b97505060206200066d8a828b01620003db565b9650506040620006808a828b0162000416565b955050606088015167ffffffffffffffff811115620006a457620006a362000343565b5b620006b28a828b0162000579565b9450506080620006c58a828b01620005d0565b93505060a0620006d88a828b0162000611565b92505060c0620006eb8a828b01620005d0565b91505092959891949750929550565b600081519050919050565b7f4e487b7100000000000000000000000000000000000000000000000000000000600052602260045260246000fd5b600060028204905060018216806200074d57607f821691505b60208210810362000763576200076262000705565b5b50919050565b60008190508160005260206000209050919050565b60006020601f8301049050919050565b600082821b905092915050565b600060088302620007cd7fffffffffffffffffffffffffffffffffffffffffffffffffffffffffffffffff826200078e565b620007d986836200078e565b95508019841693508086168417925050509392505050565b6000819050919050565b60006200081c620008166200081084620005ac565b620007f1565b620005ac565b9050919050565b6000819050919050565b6200083883620007fb565b62000850620008478262000823565b8484546200079b565b825550505050565b600090565b6200086762000858565b620008748184846200082d565b505050565b5b818110156200089c57620008906000826200085d565b6001810190506200087a565b5050565b601f821115620008eb57620008b58162000769565b620008c0846200077e565b81016020851015620008d0578190505b620008e8620008df856200077e565b83018262000879565b50505b505050565b600082821c905092915050565b60006200091060001984600802620008f0565b1980831691505092915050565b60006200092b8383620008fd565b9150826002028217905092915050565b6200094682620006fa565b67ffffffffffffffff81111562000962576200096162000448565b5b6200096e825462000734565b6200097b828285620008a0565b600060209050601f831160018114620009b357600084156200099e578287015190505b620009aa85826200091d565b86555062000a1a565b601f198416620009c38662000769565b60005b82811015620009ed57848901518255600182019150602085019450602081019050620009c6565b8683101562000a0d578489015162000a09601f891682620008fd565b8355505b6001600288020188555050505b505050505050565b60805161444e62000a456000396000818161068a01526106de015261444e6000f3fe6080604052600436106101b75760003560e01c8063982d8084116100ec578063e580f47b1161008a578063edca914c11610064578063edca914c146105f9578063f2fde38b14610603578063f6a30e3e1461062c578063fc2a88c314610657576101b7565b8063e580f47b1461058e578063ea7b4f77146105b9578063eb9969a8146105e2576101b7565b8063c468bf9c116100c6578063c468bf9c146104bf578063d8a4676f146104e8578063ddca3f4314610526578063e575df7214610551576101b7565b8063982d80841461042f578063a168fa8914610458578063a7348e5f14610496576101b7565b8063715018a6116101595780638824f5a7116101335780638824f5a71461037357806389737fcf1461039c5780638da5cb5b146103c75780638ff72293146103f2576101b7565b8063715018a6146102f45780637cbcbd3c1461030b5780638796ba8c14610336576101b7565b8063379607f511610195578063379607f51461023b5780634585e33b146102645780635cc296951461028d5780636e04ff0d146102b6576101b7565b80631209b1f6146101bc5780631fe543e3146101e757806323d1414914610210575b600080fd5b3480156101c857600080fd5b506101d1610682565b6040516101de91906127e1565b60405180910390f35b3480156101f357600080fd5b5061020e60048036038101906102099190612995565b610688565b005b34801561021c57600080fd5b50610225610748565b6040516102329190612a70565b60405180910390f35b34801561024757600080fd5b50610262600480360381019061025d9190612a92565b6107d6565b005b34801561027057600080fd5b5061028b60048036038101906102869190612b1a565b610d73565b005b34801561029957600080fd5b506102b460048036038101906102af9190612c58565b610e12565b005b3480156102c257600080fd5b506102dd60048036038101906102d89190612b1a565b610efb565b6040516102eb929190612d71565b60405180910390f35b34801561030057600080fd5b50610309610f5c565b005b34801561031757600080fd5b50610320610f70565b60405161032d91906127e1565b60405180910390f35b34801561034257600080fd5b5061035d60048036038101906103589190612a92565b610f76565b60405161036a91906127e1565b60405180910390f35b34801561037f57600080fd5b5061039a60048036038101906103959190612ddb565b610f9a565b005b3480156103a857600080fd5b506103b1610fc2565b6040516103be91906127e1565b60405180910390f35b3480156103d357600080fd5b506103dc610fc8565b6040516103e99190612e49565b60405180910390f35b3480156103fe57600080fd5b5061041960048036038101906104149190612a92565b610ff1565b604051610426919061301f565b60405180910390f35b34801561043b57600080fd5b5061045660048036038101906104519190613041565b6111d8565b005b34801561046457600080fd5b5061047f600480360381019061047a9190612a92565b611204565b60405161048d92919061306e565b60405180910390f35b3480156104a257600080fd5b506104bd60048036038101906104b891906130cd565b611242565b005b3480156104cb57600080fd5b506104e660048036038101906104e19190612a92565b611254565b005b3480156104f457600080fd5b5061050f600480360381019061050a9190612a92565b611554565b60405161051d9291906131a9565b60405180910390f35b34801561053257600080fd5b5061053b61167f565b60405161054891906127e1565b60405180910390f35b34801561055d57600080fd5b5061057860048036038101906105739190613205565b611685565b6040516105859190613304565b60405180910390f35b34801561059a57600080fd5b506105a361177e565b6040516105b091906127e1565b60405180910390f35b3480156105c557600080fd5b506105e060048036038101906105db9190613366565b61178a565b005b3480156105ee57600080fd5b506105f76117be565b005b61060161180f565b005b34801561060f57600080fd5b5061062a60048036038101906106259190613393565b611ccb565b005b34801561063857600080fd5b50610641611d4e565b60405161064e91906133cf565b60405180910390f35b34801561066357600080fd5b5061066c611d64565b60405161067991906127e1565b60405180910390f35b60105481565b7f000000000000000000000000000000000000000000000000000000000000000073ffffffffffffffffffffffffffffffffffffffff163373ffffffffffffffffffffffffffffffffffffffff161461073a57337f00000000000000000000000000000000000000000000000000000000000000006040517f1cf993f40000000000000000000000000000000000000000000000000000000081526004016107319291906133ea565b60405180910390fd5b6107448282611d78565b5050565b6011805461075590613442565b80601f016020809104026020016040519081016040528092919081815260200182805461078190613442565b80156107ce5780601f106107a3576101008083540402835291602001916107ce565b820191906000526020600020905b8154815290600101906020018083116107b157829003601f168201915b505050505081565b6107de611f04565b600a600082815260200190815260200160002060070160149054906101000a900460ff1615610842576040517f08c379a0000000000000000000000000000000000000000000000000000000008152600401610839906134e5565b60405180910390fd5b600a600082815260200190815260200160002060050160009054906101000a900460ff166108a5576040517f08c379a000000000000000000000000000000000000000000000000000000000815260040161089c90613577565b60405180910390fd5b600073ffffffffffffffffffffffffffffffffffffffff16600a600083815260200190815260200160002060070160009054906101000a900473ffffffffffffffffffffffffffffffffffffffff1673ffffffffffffffffffffffffffffffffffffffff160361094a576040517f08c379a000000000000000000000000000000000000000000000000000000000815260040161094190613609565b60405180910390fd5b3373ffffffffffffffffffffffffffffffffffffffff16600a600083815260200190815260200160002060070160009054906101000a900473ffffffffffffffffffffffffffffffffffffffff1673ffffffffffffffffffffffffffffffffffffffff16146109ee576040517f08c379a00000000000000000000000000000000000000000000000000000000081526004016109e590613675565b60405180910390fd5b6008600082815260200190815260200160002060003373ffffffffffffffffffffffffffffffffffffffff1673ffffffffffffffffffffffffffffffffffffffff16815260200190815260200160002060000160009054906101000a900460ff16610a8e576040517f08c379a0000000000000000000000000000000000000000000000000000000008152600401610a8590613707565b60405180910390fd5b6008600082815260200190815260200160002060003373ffffffffffffffffffffffffffffffffffffffff1673ffffffffffffffffffffffffffffffffffffffff16815260200190815260200160002060000160019054906101000a900460ff1615610b2f576040517f08c379a0000000000000000000000000000000000000000000000000000000008152600401610b2690613799565b60405180910390fd5b6001600a600083815260200190815260200160002060070160146101000a81548160ff02191690831515021790555060006008600083815260200190815260200160002060003373ffffffffffffffffffffffffffffffffffffffff1673ffffffffffffffffffffffffffffffffffffffff16815260200190815260200160002060000160006101000a81548160ff02191690831515021790555060016008600083815260200190815260200160002060003373ffffffffffffffffffffffffffffffffffffffff1673ffffffffffffffffffffffffffffffffffffffff16815260200190815260200160002060000160016101000a81548160ff0219169083151502179055506000610c57600a600084815260200190815260200160002060040154611f53565b9050600081600a600085815260200190815260200160002060040154610c7d91906137e8565b9050610c87610fc8565b73ffffffffffffffffffffffffffffffffffffffff166108fc839081150290604051600060405180830381858888f19350505050158015610ccc573d6000803e3d6000fd5b503373ffffffffffffffffffffffffffffffffffffffff166108fc829081150290604051600060405180830381858888f19350505050158015610d13573d6000803e3d6000fd5b503373ffffffffffffffffffffffffffffffffffffffff167f588837c8642bd1b376f9f89a12784072019e42aa3f6412a48ebd1f450a113e18848385604051610d5e9392919061381c565b60405180910390a25050610d70611f76565b50565b6000610d7f600b611d6a565b9050600a600082815260200190815260200160002060070160199054906101000a900460ff168015610dc65750600a60008281526020019081526020016000206008015442115b610e05576040517f08c379a0000000000000000000000000000000000000000000000000000000008152600401610dfc9061389f565b60405180910390fd5b610e0d611f7f565b505050565b610e1a612147565b601e811115610e5e576040517f08c379a0000000000000000000000000000000000000000000000000000000008152600401610e559061390b565b60405180910390fd5b80600c8190555082600d8190555081600e819055508460108190555083600f60006101000a81548163ffffffff021916908363ffffffff1602179055503373ffffffffffffffffffffffffffffffffffffffff167fdfcfcdeac7cdd38c4b0a0537d363f95fa8d7cce818fd23989dc2f35f11a90ae3878784888888604051610eeb9695949392919061392b565b60405180910390a2505050505050565b600060606000610f0b600b611d6a565b9050600a600082815260200190815260200160002060070160199054906101000a900460ff168015610f525750600a60008281526020019081526020016000206008015442115b9250509250929050565b610f64612147565b610f6e60006121c5565b565b600d5481565b60048181548110610f8657600080fd5b906000526020600020016000915090505481565b610fa2612147565b80600760046101000a81548161ffff021916908361ffff16021790555050565b600e5481565b60008060009054906101000a900473ffffffffffffffffffffffffffffffffffffffff16905090565b610ff9612696565b600a6000838152602001908152602001600020604051806101a001604052908160008201805461102890613442565b80601f016020809104026020016040519081016040528092919081815260200182805461105490613442565b80156110a15780601f10611076576101008083540402835291602001916110a1565b820191906000526020600020905b81548152906001019060200180831161108457829003601f168201915b505050505081526020016001820154815260200160028201604051806020016040529081600082015481525050815260200160038201548152602001600482015481526020016005820160009054906101000a900460ff16151515158152602001600682015481526020016007820160009054906101000a900473ffffffffffffffffffffffffffffffffffffffff1673ffffffffffffffffffffffffffffffffffffffff1673ffffffffffffffffffffffffffffffffffffffff1681526020016007820160149054906101000a900460ff161515151581526020016007820160159054906101000a900463ffffffff1663ffffffff1663ffffffff1681526020016007820160199054906101000a900460ff16151515158152602001600882015481526020016009820154815250509050919050565b6111e0612147565b80600760006101000a81548163ffffffff021916908363ffffffff16021790555050565b60026020528060005260406000206000915090508060000160009054906101000a900460ff16908060000160019054906101000a900460ff16905082565b61124a612147565b8060068190555050565b61125c612147565b600a600082815260200190815260200160002060070160149054906101000a900460ff16156112c0576040517f08c379a00000000000000000000000000000000000000000000000000000000081526004016112b7906134e5565b60405180910390fd5b600a600082815260200190815260200160002060050160009054906101000a900460ff16611323576040517f08c379a000000000000000000000000000000000000000000000000000000000815260040161131a90613577565b60405180910390fd5b600073ffffffffffffffffffffffffffffffffffffffff16600a600083815260200190815260200160002060070160009054906101000a900473ffffffffffffffffffffffffffffffffffffffff1673ffffffffffffffffffffffffffffffffffffffff16036113c8576040517f08c379a00000000000000000000000000000000000000000000000000000000081526004016113bf90613609565b60405180910390fd5b42600a60008381526020019081526020016000206009015410611420576040517f08c379a000000000000000000000000000000000000000000000000000000000815260040161141790613a05565b60405180910390fd5b6001600a600083815260200190815260200160002060070160146101000a81548160ff021916908315150217905550611457610fc8565b73ffffffffffffffffffffffffffffffffffffffff166108fc600a6000848152602001908152602001600020600401549081150290604051600060405180830381858888f193505050501580156114b2573d6000803e3d6000fd5b50600a600082815260200190815260200160002060070160009054906101000a900473ffffffffffffffffffffffffffffffffffffffff1673ffffffffffffffffffffffffffffffffffffffff167f18871ffdb80828adbbab2e9a9ecbe66822633e5b565d86f4fe5cbbd6871f02793383600a60008681526020019081526020016000206004015460405161154993929190613a25565b60405180910390a250565b600060606002600084815260200190815260200160002060000160019054906101000a900460ff166115bb576040517f08c379a00000000000000000000000000000000000000000000000000000000081526004016115b290613aa8565b60405180910390fd5b6000600260008581526020019081526020016000206040518060600160405290816000820160009054906101000a900460ff161515151581526020016000820160019054906101000a900460ff161515151581526020016001820180548060200260200160405190810160405280929190818152602001828054801561166057602002820191906000526020600020905b81548152602001906001019080831161164c575b5050505050815250509050806000015181604001519250925050915091565b600c5481565b61168d612726565b6008600084815260200190815260200160002060008373ffffffffffffffffffffffffffffffffffffffff1673ffffffffffffffffffffffffffffffffffffffff1681526020019081526020016000206040518060600160405290816000820160009054906101000a900460ff161515151581526020016000820160019054906101000a900460ff161515151581526020016001820180548060200260200160405190810160405280929190818152602001828054801561176d57602002820191906000526020600020905b815481526020019060010190808311611759575b505050505081525050905092915050565b600b8060000154905081565b611792612147565b80600360146101000a81548167ffffffffffffffff021916908367ffffffffffffffff16021790555050565b6117c6612147565b3373ffffffffffffffffffffffffffffffffffffffff166108fc479081150290604051600060405180830381858888f1935050505015801561180c573d6000803e3d6000fd5b50565b611817611f04565b6000611823600b611d6a565b9050600a600082815260200190815260200160002060050160009054906101000a900460ff1615611889576040517f08c379a000000000000000000000000000000000000000000000000000000000815260040161188090613b3a565b60405180910390fd5b34600a600083815260200190815260200160002060010154146118e1576040517f08c379a00000000000000000000000000000000000000000000000000000000081526004016118d890613bcc565b60405180910390fd5b6000611901600a6000848152602001908152602001600020600201611d6a565b9050611921600a6000848152602001908152602001600020600201612289565b60016008600084815260200190815260200160002060003373ffffffffffffffffffffffffffffffffffffffff1673ffffffffffffffffffffffffffffffffffffffff16815260200190815260200160002060000160006101000a81548160ff02191690831515021790555060006008600084815260200190815260200160002060003373ffffffffffffffffffffffffffffffffffffffff1673ffffffffffffffffffffffffffffffffffffffff16815260200190815260200160002060000160016101000a81548160ff0219169083151502179055506008600083815260200190815260200160002060003373ffffffffffffffffffffffffffffffffffffffff1673ffffffffffffffffffffffffffffffffffffffff1681526020019081526020016000206001018190806001815401808255809150506001900390600052602060002001600090919091909150553360096000848152602001908152602001600020600083815260200190815260200160002060006101000a81548173ffffffffffffffffffffffffffffffffffffffff021916908373ffffffffffffffffffffffffffffffffffffffff16021790555034600a60008481526020019081526020016000206004016000828254611afc9190613bec565b925050819055506000611b23600a6000858152602001908152602001600020600201611d6a565b9050600a600084815260200190815260200160002060070160199054906101000a900460ff16158015611b825750600a600084815260200190815260200160002060070160159054906101000a900463ffffffff1663ffffffff168110155b15611c6e576001600a600085815260200190815260200160002060070160196101000a81548160ff021916908315150217905550600d5442611bc49190613bec565b600a6000858152602001908152602001600020600801819055507f3dcdfcde0ffa80946025c1000bff52fe117ec934dfc3c45fc9cfaa064c91c18c81600a600086815260200190815260200160002060070160159054906101000a900463ffffffff16600a600087815260200190815260200160002060040154600a600088815260200190815260200160002060080154604051611c659493929190613c20565b60405180910390a15b3373ffffffffffffffffffffffffffffffffffffffff167f97fac0ce6558f4accbb4696915809c0ef7023ffe7ba9454e94d49fb652aae1d53485604051611cb6929190613c65565b60405180910390a2505050611cc9611f76565b565b611cd3612147565b600073ffffffffffffffffffffffffffffffffffffffff168173ffffffffffffffffffffffffffffffffffffffff1603611d42576040517f08c379a0000000000000000000000000000000000000000000000000000000008152600401611d3990613d00565b60405180910390fd5b611d4b816121c5565b50565b600f60009054906101000a900463ffffffff1681565b60055481565b600081600001549050919050565b611d82828261229f565b6000611d8e600b611d6a565b90506000611db0600a6000848152602001908152602001600020600201611d6a565b9050600a6000838152602001908152602001600020600601548403611efe576009600083815260200190815260200160002060008285600081518110611df957611df8613d20565b5b6020026020010151611e0b9190613d7e565b815260200190815260200160002060009054906101000a900473ffffffffffffffffffffffffffffffffffffffff16600a600084815260200190815260200160002060070160006101000a81548173ffffffffffffffffffffffffffffffffffffffff021916908373ffffffffffffffffffffffffffffffffffffffff160217905550600e5442611e9c9190613bec565b600a600084815260200190815260200160002060090181905550611ebe612399565b611efd576040517f08c379a0000000000000000000000000000000000000000000000000000000008152600401611ef490613dfb565b60405180910390fd5b5b50505050565b600260015403611f49576040517f08c379a0000000000000000000000000000000000000000000000000000000008152600401611f4090613e67565b60405180910390fd5b6002600181905550565b60006064600c5483611f659190613e87565b611f6f9190613ec9565b9050919050565b60018081905550565b6000611f8b600b611d6a565b90506000611fad600a6000848152602001908152602001600020600201611d6a565b905080600a600084815260200190815260200160002060070160159054906101000a900463ffffffff1663ffffffff16111561201e576040517f08c379a000000000000000000000000000000000000000000000000000000000815260040161201590613f46565b60405180910390fd5b600a600083815260200190815260200160002060050160009054906101000a900460ff1615612082576040517f08c379a000000000000000000000000000000000000000000000000000000000815260040161207990613fb2565b60405180910390fd5b6001600a600084815260200190815260200160002060050160006101000a81548160ff0219169083151502179055506120bb600161245f565b600a6000848152602001908152602001600020600601819055507f9337fa876371ba7a2ae0a3fd96612bed9a9baaff955d10f3c0168d544f7a053733600a60008581526020019081526020016000206004015461212c600a6000878152602001908152602001600020600201611d6a565b60405161213b93929190613a25565b60405180910390a15050565b61214f61268e565b73ffffffffffffffffffffffffffffffffffffffff1661216d610fc8565b73ffffffffffffffffffffffffffffffffffffffff16146121c3576040517f08c379a00000000000000000000000000000000000000000000000000000000081526004016121ba9061401e565b60405180910390fd5b565b60008060009054906101000a900473ffffffffffffffffffffffffffffffffffffffff169050816000806101000a81548173ffffffffffffffffffffffffffffffffffffffff021916908373ffffffffffffffffffffffffffffffffffffffff1602179055508173ffffffffffffffffffffffffffffffffffffffff168173ffffffffffffffffffffffffffffffffffffffff167f8be0079c531659141344cd1fd0a4f28419497f9722a3daafe3b4186f6b6457e060405160405180910390a35050565b6001816000016000828254019250508190555050565b6002600083815260200190815260200160002060000160019054906101000a900460ff16612302576040517f08c379a00000000000000000000000000000000000000000000000000000000081526004016122f990613aa8565b60405180910390fd5b60016002600084815260200190815260200160002060000160006101000a81548160ff0219169083151502179055508060026000848152602001908152602001600020600101908051906020019061235b92919061274b565b507ffe2e2d779dba245964d4e3ef9b994be63856fd568bf7d3ca9e224755cb1bd54d828260405161238d92919061403e565b60405180910390a15050565b60006123a5600b612289565b60006123b1600b611d6a565b90506011600a600083815260200190815260200160002060000190816123d79190614245565b50601054600a600083815260200190815260200160002060010181905550600f60009054906101000a900463ffffffff16600a600083815260200190815260200160002060070160156101000a81548163ffffffff021916908363ffffffff16021790555042600a600083815260200190815260200160002060030181905550600191505090565b6000600360009054906101000a900473ffffffffffffffffffffffffffffffffffffffff1673ffffffffffffffffffffffffffffffffffffffff16635d3b1d30600654600360149054906101000a900467ffffffffffffffff16600760049054906101000a900461ffff16600760009054906101000a900463ffffffff16876040518663ffffffff1660e01b81526004016124fe95949392919061435a565b6020604051808303816000875af115801561251d573d6000803e3d6000fd5b505050506040513d601f19601f8201168201806040525081019061254191906143c2565b90506040518060600160405280600015158152602001600115158152602001600067ffffffffffffffff81111561257b5761257a612852565b5b6040519080825280602002602001820160405280156125a95781602001602082028036833780820191505090505b508152506002600083815260200190815260200160002060008201518160000160006101000a81548160ff02191690831515021790555060208201518160000160016101000a81548160ff021916908315150217905550604082015181600101908051906020019061261c92919061274b565b509050506004819080600181540180825580915050600190039060005260206000200160009091909190915055806005819055507fcc58b13ad3eab50626c6a6300b1d139cd6ebb1688a7cced9461c2f7e762665ee81836040516126819291906143ef565b60405180910390a1919050565b600033905090565b604051806101a0016040528060608152602001600081526020016126b8612798565b8152602001600081526020016000815260200160001515815260200160008152602001600073ffffffffffffffffffffffffffffffffffffffff168152602001600015158152602001600063ffffffff16815260200160001515815260200160008152602001600081525090565b6040518060600160405280600015158152602001600015158152602001606081525090565b828054828255906000526020600020908101928215612787579160200282015b8281111561278657825182559160200191906001019061276b565b5b50905061279491906127ab565b5090565b6040518060200160405280600081525090565b5b808211156127c45760008160009055506001016127ac565b5090565b6000819050919050565b6127db816127c8565b82525050565b60006020820190506127f660008301846127d2565b92915050565b6000604051905090565b600080fd5b600080fd5b612819816127c8565b811461282457600080fd5b50565b60008135905061283681612810565b92915050565b600080fd5b6000601f19601f8301169050919050565b7f4e487b7100000000000000000000000000000000000000000000000000000000600052604160045260246000fd5b61288a82612841565b810181811067ffffffffffffffff821117156128a9576128a8612852565b5b80604052505050565b60006128bc6127fc565b90506128c88282612881565b919050565b600067ffffffffffffffff8211156128e8576128e7612852565b5b602082029050602081019050919050565b600080fd5b600061291161290c846128cd565b6128b2565b90508083825260208201905060208402830185811115612934576129336128f9565b5b835b8181101561295d57806129498882612827565b845260208401935050602081019050612936565b5050509392505050565b600082601f83011261297c5761297b61283c565b5b813561298c8482602086016128fe565b91505092915050565b600080604083850312156129ac576129ab612806565b5b60006129ba85828601612827565b925050602083013567ffffffffffffffff8111156129db576129da61280b565b5b6129e785828601612967565b9150509250929050565b600081519050919050565b600082825260208201905092915050565b60005b83811015612a2b578082015181840152602081019050612a10565b60008484015250505050565b6000612a42826129f1565b612a4c81856129fc565b9350612a5c818560208601612a0d565b612a6581612841565b840191505092915050565b60006020820190508181036000830152612a8a8184612a37565b905092915050565b600060208284031215612aa857612aa7612806565b5b6000612ab684828501612827565b91505092915050565b600080fd5b60008083601f840112612ada57612ad961283c565b5b8235905067ffffffffffffffff811115612af757612af6612abf565b5b602083019150836001820283011115612b1357612b126128f9565b5b9250929050565b60008060208385031215612b3157612b30612806565b5b600083013567ffffffffffffffff811115612b4f57612b4e61280b565b5b612b5b85828601612ac4565b92509250509250929050565b600080fd5b600067ffffffffffffffff821115612b8757612b86612852565b5b612b9082612841565b9050602081019050919050565b82818337600083830152505050565b6000612bbf612bba84612b6c565b6128b2565b905082815260208101848484011115612bdb57612bda612b67565b5b612be6848285612b9d565b509392505050565b600082601f830112612c0357612c0261283c565b5b8135612c13848260208601612bac565b91505092915050565b600063ffffffff82169050919050565b612c3581612c1c565b8114612c4057600080fd5b50565b600081359050612c5281612c2c565b92915050565b60008060008060008060c08789031215612c7557612c74612806565b5b600087013567ffffffffffffffff811115612c9357612c9261280b565b5b612c9f89828a01612bee565b9650506020612cb089828a01612827565b9550506040612cc189828a01612c43565b9450506060612cd289828a01612827565b9350506080612ce389828a01612827565b92505060a0612cf489828a01612827565b9150509295509295509295565b60008115159050919050565b612d1681612d01565b82525050565b600081519050919050565b600082825260208201905092915050565b6000612d4382612d1c565b612d4d8185612d27565b9350612d5d818560208601612a0d565b612d6681612841565b840191505092915050565b6000604082019050612d866000830185612d0d565b8181036020830152612d988184612d38565b90509392505050565b600061ffff82169050919050565b612db881612da1565b8114612dc357600080fd5b50565b600081359050612dd581612daf565b92915050565b600060208284031215612df157612df0612806565b5b6000612dff84828501612dc6565b91505092915050565b600073ffffffffffffffffffffffffffffffffffffffff82169050919050565b6000612e3382612e08565b9050919050565b612e4381612e28565b82525050565b6000602082019050612e5e6000830184612e3a565b92915050565b600082825260208201905092915050565b6000612e80826129f1565b612e8a8185612e64565b9350612e9a818560208601612a0d565b612ea381612841565b840191505092915050565b612eb7816127c8565b82525050565b602082016000820151612ed36000850182612eae565b50505050565b612ee281612d01565b82525050565b612ef181612e28565b82525050565b612f0081612c1c565b82525050565b60006101a0830160008301518482036000860152612f248282612e75565b9150506020830151612f396020860182612eae565b506040830151612f4c6040860182612ebd565b506060830151612f5f6060860182612eae565b506080830151612f726080860182612eae565b5060a0830151612f8560a0860182612ed9565b5060c0830151612f9860c0860182612eae565b5060e0830151612fab60e0860182612ee8565b50610100830151612fc0610100860182612ed9565b50610120830151612fd5610120860182612ef7565b50610140830151612fea610140860182612ed9565b50610160830151612fff610160860182612eae565b50610180830151613014610180860182612eae565b508091505092915050565b600060208201905081810360008301526130398184612f06565b905092915050565b60006020828403121561305757613056612806565b5b600061306584828501612c43565b91505092915050565b60006040820190506130836000830185612d0d565b6130906020830184612d0d565b9392505050565b6000819050919050565b6130aa81613097565b81146130b557600080fd5b50565b6000813590506130c7816130a1565b92915050565b6000602082840312156130e3576130e2612806565b5b60006130f1848285016130b8565b91505092915050565b600081519050919050565b600082825260208201905092915050565b6000819050602082019050919050565b60006131328383612eae565b60208301905092915050565b6000602082019050919050565b6000613156826130fa565b6131608185613105565b935061316b83613116565b8060005b8381101561319c5781516131838882613126565b975061318e8361313e565b92505060018101905061316f565b5085935050505092915050565b60006040820190506131be6000830185612d0d565b81810360208301526131d0818461314b565b90509392505050565b6131e281612e28565b81146131ed57600080fd5b50565b6000813590506131ff816131d9565b92915050565b6000806040838503121561321c5761321b612806565b5b600061322a85828601612827565b925050602061323b858286016131f0565b9150509250929050565b600082825260208201905092915050565b6000613261826130fa565b61326b8185613245565b935061327683613116565b8060005b838110156132a757815161328e8882613126565b97506132998361313e565b92505060018101905061327a565b5085935050505092915050565b60006060830160008301516132cc6000860182612ed9565b5060208301516132df6020860182612ed9565b50604083015184820360408601526132f78282613256565b9150508091505092915050565b6000602082019050818103600083015261331e81846132b4565b905092915050565b600067ffffffffffffffff82169050919050565b61334381613326565b811461334e57600080fd5b50565b6000813590506133608161333a565b92915050565b60006020828403121561337c5761337b612806565b5b600061338a84828501613351565b91505092915050565b6000602082840312156133a9576133a8612806565b5b60006133b7848285016131f0565b91505092915050565b6133c981612c1c565b82525050565b60006020820190506133e460008301846133c0565b92915050565b60006040820190506133ff6000830185612e3a565b61340c6020830184612e3a565b9392505050565b7f4e487b7100000000000000000000000000000000000000000000000000000000600052602260045260246000fd5b6000600282049050600182168061345a57607f821691505b60208210810361346d5761346c613413565b5b50919050565b7f5468652077696e6e657220616c726561647920636c61696d656420697473207060008201527f72697a652e000000000000000000000000000000000000000000000000000000602082015250565b60006134cf6025836129fc565b91506134da82613473565b604082019050919050565b600060208201905081810360008301526134fe816134c2565b9050919050565b7f54686973206c6f74746572792069736e27742066696e616c697a65642079657460008201527f2e00000000000000000000000000000000000000000000000000000000000000602082015250565b60006135616021836129fc565b915061356c82613505565b604082019050919050565b6000602082019050818103600083015261359081613554565b9050919050565b7f54686973206c6f7474657279206469646e27742067657420612077696e6e657260008201527f207965742e000000000000000000000000000000000000000000000000000000602082015250565b60006135f36025836129fc565b91506135fe82613597565b604082019050919050565b60006020820190508181036000830152613622816135e6565b9050919050565b7f596f75277265206e6f74207468652077696e6e65722e00000000000000000000600082015250565b600061365f6016836129fc565b915061366a82613629565b602082019050919050565b6000602082019050818103600083015261368e81613652565b9050919050565b7f596f7520646f6e74206861766520616e79207469636b657420746f20636c616960008201527f6d20686572652e00000000000000000000000000000000000000000000000000602082015250565b60006136f16027836129fc565b91506136fc82613695565b604082019050919050565b60006020820190508181036000830152613720816136e4565b9050919050565b7f596f75206861766520616c7265616420636c61696d656420796f75722070726960008201527f7a652e0000000000000000000000000000000000000000000000000000000000602082015250565b60006137836023836129fc565b915061378e82613727565b604082019050919050565b600060208201905081810360008301526137b281613776565b9050919050565b7f4e487b7100000000000000000000000000000000000000000000000000000000600052601160045260246000fd5b60006137f3826127c8565b91506137fe836127c8565b9250828203905081811115613816576138156137b9565b5b92915050565b600060608201905061383160008301866127d2565b61383e60208301856127d2565b61384b60408301846127d2565b949350505050565b7f4e6f742072656164207965740000000000000000000000000000000000000000600082015250565b6000613889600c836129fc565b915061389482613853565b602082019050919050565b600060208201905081810360008301526138b88161387c565b9050919050565b7f4665652063616e277420626520626574746572207468616e2033302500000000600082015250565b60006138f5601c836129fc565b9150613900826138bf565b602082019050919050565b60006020820190508181036000830152613924816138e8565b9050919050565b600060c08201905081810360008301526139458189612a37565b905061395460208301886127d2565b61396160408301876127d2565b61396e60608301866133c0565b61397b60808301856127d2565b61398860a08301846127d2565b979650505050505050565b7f596f752063616e277420636c61696d206265666f72652074696d65546f436c6160008201527f696d2067657420657870697265642e0000000000000000000000000000000000602082015250565b60006139ef602f836129fc565b91506139fa82613993565b604082019050919050565b60006020820190508181036000830152613a1e816139e2565b9050919050565b6000606082019050613a3a6000830186612e3a565b613a4760208301856127d2565b613a5460408301846127d2565b949350505050565b7f72657175657374206e6f7420666f756e64000000000000000000000000000000600082015250565b6000613a926011836129fc565b9150613a9d82613a5c565b602082019050919050565b60006020820190508181036000830152613ac181613a85565b9050919050565b7f54686973206c6f74746572792068617320616c72656164792066696e616c697a60008201527f65642c207761697420666f7220726573756c7473210000000000000000000000602082015250565b6000613b246035836129fc565b9150613b2f82613ac8565b604082019050919050565b60006020820190508181036000830152613b5381613b17565b9050919050565b7f596f75206e65656420746f20706179207468652065786163746c79207469636b60008201527f65742070726963652e0000000000000000000000000000000000000000000000602082015250565b6000613bb66029836129fc565b9150613bc182613b5a565b604082019050919050565b60006020820190508181036000830152613be581613ba9565b9050919050565b6000613bf7826127c8565b9150613c02836127c8565b9250828201905080821115613c1a57613c196137b9565b5b92915050565b6000608082019050613c3560008301876127d2565b613c4260208301866133c0565b613c4f60408301856127d2565b613c5c60608301846127d2565b95945050505050565b6000604082019050613c7a60008301856127d2565b613c8760208301846127d2565b9392505050565b7f4f776e61626c653a206e6577206f776e657220697320746865207a65726f206160008201527f6464726573730000000000000000000000000000000000000000000000000000602082015250565b6000613cea6026836129fc565b9150613cf582613c8e565b604082019050919050565b60006020820190508181036000830152613d1981613cdd565b9050919050565b7f4e487b7100000000000000000000000000000000000000000000000000000000600052603260045260246000fd5b7f4e487b7100000000000000000000000000000000000000000000000000000000600052601260045260246000fd5b6000613d89826127c8565b9150613d94836127c8565b925082613da457613da3613d4f565b5b828206905092915050565b7f4c6f7474657279206e6565647320746f20626520726573657465640000000000600082015250565b6000613de5601b836129fc565b9150613df082613daf565b602082019050919050565b60006020820190508181036000830152613e1481613dd8565b9050919050565b7f5265656e7472616e637947756172643a207265656e7472616e742063616c6c00600082015250565b6000613e51601f836129fc565b9150613e5c82613e1b565b602082019050919050565b60006020820190508181036000830152613e8081613e44565b9050919050565b6000613e92826127c8565b9150613e9d836127c8565b9250828202613eab816127c8565b91508282048414831517613ec257613ec16137b9565b5b5092915050565b6000613ed4826127c8565b9150613edf836127c8565b925082613eef57613eee613d4f565b5b828204905092915050565b7f4974204469646e74207265616368206d696e207469636b657473207965742e00600082015250565b6000613f30601f836129fc565b9150613f3b82613efa565b602082019050919050565b60006020820190508181036000830152613f5f81613f23565b9050919050565b7f4c6f747465727920616c72656164792066696e616c697a65642e000000000000600082015250565b6000613f9c601a836129fc565b9150613fa782613f66565b602082019050919050565b60006020820190508181036000830152613fcb81613f8f565b9050919050565b7f4f776e61626c653a2063616c6c6572206973206e6f7420746865206f776e6572600082015250565b60006140086020836129fc565b915061401382613fd2565b602082019050919050565b6000602082019050818103600083015261403781613ffb565b9050919050565b600060408201905061405360008301856127d2565b8181036020830152614065818461314b565b90509392505050565b60008154905061407d81613442565b9050919050565b60008190508160005260206000209050919050565b60008190508160005260206000209050919050565b60006020601f8301049050919050565b600082821b905092915050565b6000600883026140fb7fffffffffffffffffffffffffffffffffffffffffffffffffffffffffffffffff826140be565b61410586836140be565b95508019841693508086168417925050509392505050565b6000819050919050565b600061414261413d614138846127c8565b61411d565b6127c8565b9050919050565b6000819050919050565b61415c83614127565b61417061416882614149565b8484546140cb565b825550505050565b600090565b614185614178565b614190818484614153565b505050565b5b818110156141b4576141a960008261417d565b600181019050614196565b5050565b601f8211156141f9576141ca81614084565b6141d3846140ae565b810160208510156141e2578190505b6141f66141ee856140ae565b830182614195565b50505b505050565b600082821c905092915050565b600061421c600019846008026141fe565b1980831691505092915050565b6000614235838361420b565b9150826002028217905092915050565b81810361425357505061432b565b61425c8261406e565b67ffffffffffffffff81111561427557614274612852565b5b61427f8254613442565b61428a8282856141b8565b6000601f8311600181146142b957600084156142a7578287015490505b6142b18582614229565b865550614324565b601f1984166142c787614099565b96506142d286614084565b60005b828110156142fa578489015482556001820191506001850194506020810190506142d5565b868310156143175784890154614313601f89168261420b565b8355505b6001600288020188555050505b5050505050505b565b61433681613097565b82525050565b61434581613326565b82525050565b61435481612da1565b82525050565b600060a08201905061436f600083018861432d565b61437c602083018761433c565b614389604083018661434b565b61439660608301856133c0565b6143a360808301846133c0565b9695505050505050565b6000815190506143bc81612810565b92915050565b6000602082840312156143d8576143d7612806565b5b60006143e6848285016143ad565b91505092915050565b600060408201905061440460008301856127d2565b61441160208301846133c0565b939250505056fea264697066735822122059cd544ff4a57951c9ef757b3ea08eb8e8174d0f6c570be4e5c988133055784b64736f6c63430008110033",
  "immutableReferences": {
    "49": [
      {
        "length": 32,
        "start": 1674
      },
      {
        "length": 32,
        "start": 1758
      }
    ]
  },
  "source": "// SPDX-License-Identifier: MIT\npragma solidity ^0.8.17;\n\nimport \"@chainlink/contracts/src/v0.8/interfaces/VRFCoordinatorV2Interface.sol\";\nimport \"@chainlink/contracts/src/v0.8/VRFConsumerBaseV2.sol\";\nimport \"@chainlink/contracts/src/v0.8/AutomationCompatible.sol\";\n\nimport \"@openzeppelin/contracts/access/Ownable.sol\";\nimport \"@openzeppelin/contracts/utils/Counters.sol\";\nimport \"@openzeppelin/contracts/security/ReentrancyGuard.sol\";\n\nimport \"./VRFV2Consumer.sol\";\n\ncontract Lottery is\n    Ownable,\n    ReentrancyGuard,\n    VRFV2Consumer,\n    AutomationCompatibleInterface\n{\n    using Counters for Counters.Counter;\n\n    struct User {\n        bool hasTicket;\n        bool claimed;\n        uint256[] tickets;\n    }\n\n    struct LotteryStruct {\n        string name;\n        uint256 ticketPrice;\n        Counters.Counter ticketsCount;\n        uint256 startedTime;\n        uint256 balance;\n        bool finalized;\n        uint256 indexChainLink;\n        address winner;\n        bool claimed;\n        uint32 minTicket;\n        bool finishTrigger;\n        uint256 timeToFinish;\n        uint256 timeToClaim;\n    }\n\n    mapping(uint256 => mapping(address => User)) ticketOwners;\n    mapping(uint256 => mapping(uint256 => address)) tickets;\n    mapping(uint256 => LotteryStruct) lottery;\n\n    Counters.Counter public lotteryId;\n    uint256 public fee;\n    uint256 public configFinishTime;\n    uint256 public configTimeToClaim;\n    uint32 public minTicket;\n    uint256 public ticketPrice;\n    string public lotteryName;\n\n    event TicketBought(\n        address indexed buyer,\n        uint256 price,\n        uint256 ticketNumber\n    );\n    event MinTicketsReached(\n        uint256 ticketNumber,\n        uint32 minTickets,\n        uint256 balance,\n        uint256 finishTime\n    );\n    event LotteryFinalized(\n        address owner,\n        uint256 totalValue,\n        uint256 ticketAmount\n    );\n    event ClaimedPrize(\n        address indexed winner,\n        uint256 lotteryIndex,\n        uint256 totalPrize,\n        uint256 fee\n    );\n    event ClaimedExpiredPrize(\n        address indexed winner,\n        address owner,\n        uint256 lotteryIndex,\n        uint256 totalPrize\n    );\n    event ChangedProperties(\n        address indexed owner,\n        string name,\n        uint256 ticketPrize,\n        uint256 fee,\n        uint32 minTicket,\n        uint256 configFinishTime,\n        uint256 configTimeToClaim\n    );\n\n    constructor(\n        uint64 _subscriptionId,\n        address _cordinatorAddress,\n        bytes32 _keyHash,\n        string memory _name,\n        uint256 _ticketPrice,\n        uint32 _minTicket,\n        uint256 _fee\n    ) VRFV2Consumer(_subscriptionId, _cordinatorAddress, _keyHash) {\n        uint256 currentLottery = lotteryId.current();\n\n        lottery[currentLottery].name = _name;\n        lottery[currentLottery].ticketPrice = _ticketPrice;\n        lottery[currentLottery].minTicket = _minTicket;\n        lottery[currentLottery].startedTime = block.timestamp;\n\n        fee = _fee;\n        lotteryName = _name;\n        configFinishTime = 10 minutes;\n        configTimeToClaim = 10 minutes;\n        ticketPrice = _ticketPrice;\n        minTicket = _minTicket;\n    }\n\n    function buyTicket() external payable nonReentrant {\n        uint256 currentLottery = lotteryId.current();\n        require(\n            !lottery[currentLottery].finalized,\n            \"This lottery has already finalized, wait for results!\"\n        );\n        require(\n            lottery[currentLottery].ticketPrice == msg.value,\n            \"You need to pay the exactly ticket price.\"\n        );\n\n        uint256 currentLotteryPosition = lottery[currentLottery]\n            .ticketsCount\n            .current();\n        lottery[currentLottery].ticketsCount.increment();\n\n        ticketOwners[currentLottery][msg.sender].hasTicket = true;\n        ticketOwners[currentLottery][msg.sender].claimed = false;\n        ticketOwners[currentLottery][msg.sender].tickets.push(\n            currentLotteryPosition\n        );\n\n        tickets[currentLottery][currentLotteryPosition] = msg.sender;\n        lottery[currentLottery].balance += msg.value;\n\n        uint256 nextLotteryPosition = lottery[currentLottery]\n            .ticketsCount\n            .current();\n\n        if (\n            !lottery[currentLottery].finishTrigger &&\n            nextLotteryPosition >= lottery[currentLottery].minTicket\n        ) {\n            lottery[currentLottery].finishTrigger = true;\n            lottery[currentLottery].timeToFinish =\n                block.timestamp +\n                configFinishTime;\n\n            emit MinTicketsReached(\n                nextLotteryPosition,\n                lottery[currentLottery].minTicket,\n                lottery[currentLottery].balance,\n                lottery[currentLottery].timeToFinish\n            );\n        }\n\n        emit TicketBought(msg.sender, msg.value, currentLottery);\n    }\n\n    function finalizeLottery() private {\n        uint256 currentLottery = lotteryId.current();\n        uint256 currentLotteryPosition = lottery[currentLottery]\n            .ticketsCount\n            .current();\n\n        require(\n            lottery[currentLottery].minTicket <= currentLotteryPosition,\n            \"It Didnt reach min tickets yet.\"\n        );\n\n        require(\n            !lottery[currentLottery].finalized,\n            \"Lottery already finalized.\"\n        );\n\n        lottery[currentLottery].finalized = true;\n        lottery[currentLottery].indexChainLink = requestRandomWords(1);\n        emit LotteryFinalized(\n            msg.sender,\n            lottery[currentLottery].balance,\n            lottery[currentLottery].ticketsCount.current()\n        );\n    }\n\n    function fulfillRandomWords(\n        uint256 _requestId,\n        uint256[] memory _randomWords\n    ) internal override {\n        super.fulfillRandomWords(_requestId, _randomWords);\n        uint256 currentLottery = lotteryId.current();\n        uint256 currentLotteryPosition = lottery[currentLottery]\n            .ticketsCount\n            .current();\n        if (_requestId == lottery[currentLottery].indexChainLink) {\n            lottery[currentLottery].winner = tickets[currentLottery][\n                _randomWords[0] % currentLotteryPosition\n            ];\n            lottery[currentLottery].timeToClaim =\n                block.timestamp +\n                configTimeToClaim;\n            require(resetLottery(), \"Lottery needs to be reseted\");\n        }\n    }\n\n    function claim(uint256 lotteryIndex) external nonReentrant {\n        require(\n            !lottery[lotteryIndex].claimed,\n            \"The winner already claimed its prize.\"\n        );\n        require(\n            lottery[lotteryIndex].finalized,\n            \"This lottery isn't finalized yet.\"\n        );\n        require(\n            lottery[lotteryIndex].winner != address(0),\n            \"This lottery didn't get a winner yet.\"\n        );\n        require(\n            lottery[lotteryIndex].winner == msg.sender,\n            \"You're not the winner.\"\n        );\n        require(\n            ticketOwners[lotteryIndex][msg.sender].hasTicket,\n            \"You dont have any ticket to claim here.\"\n        );\n        require(\n            !ticketOwners[lotteryIndex][msg.sender].claimed,\n            \"You have alread claimed your prize.\"\n        );\n        lottery[lotteryIndex].claimed = true;\n        ticketOwners[lotteryIndex][msg.sender].hasTicket = false;\n        ticketOwners[lotteryIndex][msg.sender].claimed = true;\n\n        uint256 _feeAmount = _calcFee(lottery[lotteryIndex].balance);\n        uint256 prize = lottery[lotteryIndex].balance - _feeAmount;\n\n        payable(owner()).transfer(_feeAmount);\n        payable(msg.sender).transfer(prize);\n        emit ClaimedPrize(msg.sender, lotteryIndex, prize, _feeAmount);\n    }\n\n    function claimExpiredLottery(uint256 lotteryIndex) external onlyOwner {\n        require(\n            !lottery[lotteryIndex].claimed,\n            \"The winner already claimed its prize.\"\n        );\n        require(\n            lottery[lotteryIndex].finalized,\n            \"This lottery isn't finalized yet.\"\n        );\n        require(\n            lottery[lotteryIndex].winner != address(0),\n            \"This lottery didn't get a winner yet.\"\n        );\n        require(\n            lottery[lotteryIndex].timeToClaim < block.timestamp,\n            \"You can't claim before timeToClaim get expired.\"\n        );\n\n        lottery[lotteryIndex].claimed = true;\n\n        payable(owner()).transfer(lottery[lotteryIndex].balance);\n        emit ClaimedExpiredPrize(lottery[lotteryIndex].winner, msg.sender, lotteryIndex, lottery[lotteryIndex].balance);\n    }\n\n    function resetLottery() private returns (bool) {\n        lotteryId.increment();\n        uint256 nextLottery = lotteryId.current();\n\n        lottery[nextLottery].name = lotteryName;\n        lottery[nextLottery].ticketPrice = ticketPrice;\n        lottery[nextLottery].minTicket = minTicket;\n        lottery[nextLottery].startedTime = block.timestamp;\n\n        return true;\n    }\n\n    function _calcFee(uint256 amount) private view returns (uint256) {\n        return (amount * fee) / 100;\n    }\n\n    function setProperties(\n        string memory _name,\n        uint256 _ticketPrice,\n        uint32 _minTicket,\n        uint256 _configFinishTime,\n        uint256 _configTimeToClaim,\n        uint256 _fee\n    ) external onlyOwner {\n        require(_fee <= 30, \"Fee can't be better than 30%\");\n\n        fee = _fee;\n        configFinishTime = _configFinishTime;\n        configTimeToClaim = _configTimeToClaim;\n        ticketPrice = _ticketPrice;\n        minTicket = _minTicket;\n        emit ChangedProperties(\n            msg.sender,\n            _name,\n            _ticketPrice,\n            _fee,\n            _minTicket,\n            _configFinishTime,\n            _configTimeToClaim\n        );\n    }\n\n    function getLotteryStatus(\n        uint256 _lotteryId\n    ) public view returns (LotteryStruct memory _lottery) {\n        return lottery[_lotteryId];\n    }\n\n    function getUserStatus(\n        uint256 _lotteryId,\n        address _user\n    ) public view returns (User memory _returnedUser) {\n        return ticketOwners[_lotteryId][_user];\n    }\n\n    // Only if we have some problem to use this\n    function getAllBalance() external onlyOwner {\n        payable(msg.sender).transfer(address(this).balance);\n    }\n\n    function checkUpkeep(\n        bytes calldata /* checkData */\n    )\n        external\n        view\n        override\n        returns (bool upkeepNeeded, bytes memory /* performData */)\n    {\n        uint256 currentLottery = lotteryId.current();\n        upkeepNeeded = (lottery[currentLottery].finishTrigger &&\n            block.timestamp > lottery[currentLottery].timeToFinish);\n    }\n\n    function performUpkeep(bytes calldata /* performData */) external override {\n        uint256 currentLottery = lotteryId.current();\n\n        require(\n            (lottery[currentLottery].finishTrigger &&\n                block.timestamp > lottery[currentLottery].timeToFinish),\n            \"Not read yet\"\n        );\n        finalizeLottery();\n    }\n}\n",
  "sourcePath": "/home/kritosan/projetos/pessoais/LottoCrypto/Truffle/contracts/Lottery.sol",
  "compiler": {
    "name": "solc",
    "version": "0.8.17+commit.8df45f5f.Emscripten.clang"
  },
  "schemaVersion": "3.4.13",
  "updatedAt": "2023-03-14T18:45:16.620Z",
  "networkType": "ethereum",
  "devdoc": {
    "kind": "dev",
    "methods": {
      "owner()": {
        "details": "Returns the address of the current owner."
      },
      "renounceOwnership()": {
        "details": "Leaves the contract without owner. It will not be possible to call `onlyOwner` functions anymore. Can only be called by the current owner. NOTE: Renouncing ownership will leave the contract without an owner, thereby removing any functionality that is only available to the owner."
      },
      "transferOwnership(address)": {
        "details": "Transfers ownership of the contract to a new account (`newOwner`). Can only be called by the current owner."
      }
    },
    "version": 1
  },
  "userdoc": {
    "kind": "user",
    "methods": {},
    "version": 1
  }
}