{
  "contractName": "Lottery",
  "abi": [
    {
      "inputs": [
        {
          "internalType": "uint64",
          "name": "_subscriptionId",
          "type": "uint64"
        },
        {
          "internalType": "address",
          "name": "_cordinatorAddress",
          "type": "address"
        },
        {
          "internalType": "bytes32",
          "name": "_keyHash",
          "type": "bytes32"
        },
        {
          "internalType": "string",
          "name": "_name",
          "type": "string"
        },
        {
          "internalType": "uint256",
          "name": "_ticketPrice",
          "type": "uint256"
        },
        {
          "internalType": "uint32",
          "name": "_minTicket",
          "type": "uint32"
        },
        {
          "internalType": "uint256",
          "name": "_fee",
          "type": "uint256"
        }
      ],
      "stateMutability": "nonpayable",
      "type": "constructor"
    },
    {
      "inputs": [
        {
          "internalType": "address",
          "name": "have",
          "type": "address"
        },
        {
          "internalType": "address",
          "name": "want",
          "type": "address"
        }
      ],
      "name": "OnlyCoordinatorCanFulfill",
      "type": "error"
    },
    {
      "anonymous": false,
      "inputs": [
        {
          "indexed": true,
          "internalType": "address",
          "name": "owner",
          "type": "address"
        },
        {
          "indexed": false,
          "internalType": "string",
          "name": "name",
          "type": "string"
        },
        {
          "indexed": false,
          "internalType": "uint256",
          "name": "ticketPrize",
          "type": "uint256"
        },
        {
          "indexed": false,
          "internalType": "uint256",
          "name": "fee",
          "type": "uint256"
        },
        {
          "indexed": false,
          "internalType": "uint32",
          "name": "minTicket",
          "type": "uint32"
        },
        {
          "indexed": false,
          "internalType": "uint256",
          "name": "configFinishTime",
          "type": "uint256"
        },
        {
          "indexed": false,
          "internalType": "uint256",
          "name": "configTimeToClaim",
          "type": "uint256"
        }
      ],
      "name": "ChangedProperties",
      "type": "event"
    },
    {
      "anonymous": false,
      "inputs": [
        {
          "indexed": true,
          "internalType": "address",
          "name": "winner",
          "type": "address"
        },
        {
          "indexed": false,
          "internalType": "address",
          "name": "owner",
          "type": "address"
        },
        {
          "indexed": false,
          "internalType": "uint256",
          "name": "lotteryIndex",
          "type": "uint256"
        },
        {
          "indexed": false,
          "internalType": "uint256",
          "name": "totalPrize",
          "type": "uint256"
        }
      ],
      "name": "ClaimedExpiredPrize",
      "type": "event"
    },
    {
      "anonymous": false,
      "inputs": [
        {
          "indexed": true,
          "internalType": "address",
          "name": "winner",
          "type": "address"
        },
        {
          "indexed": false,
          "internalType": "uint256",
          "name": "lotteryIndex",
          "type": "uint256"
        },
        {
          "indexed": false,
          "internalType": "uint256",
          "name": "totalPrize",
          "type": "uint256"
        },
        {
          "indexed": false,
          "internalType": "uint256",
          "name": "fee",
          "type": "uint256"
        }
      ],
      "name": "ClaimedPrize",
      "type": "event"
    },
    {
      "anonymous": false,
      "inputs": [
        {
          "indexed": false,
          "internalType": "address",
          "name": "owner",
          "type": "address"
        },
        {
          "indexed": false,
          "internalType": "uint256",
          "name": "totalValue",
          "type": "uint256"
        },
        {
          "indexed": false,
          "internalType": "uint256",
          "name": "ticketAmount",
          "type": "uint256"
        }
      ],
      "name": "LotteryFinalized",
      "type": "event"
    },
    {
      "anonymous": false,
      "inputs": [
        {
          "indexed": false,
          "internalType": "uint256",
          "name": "ticketNumber",
          "type": "uint256"
        },
        {
          "indexed": false,
          "internalType": "uint32",
          "name": "minTickets",
          "type": "uint32"
        },
        {
          "indexed": false,
          "internalType": "uint256",
          "name": "balance",
          "type": "uint256"
        },
        {
          "indexed": false,
          "internalType": "uint256",
          "name": "finishTime",
          "type": "uint256"
        }
      ],
      "name": "MinTicketsReached",
      "type": "event"
    },
    {
      "anonymous": false,
      "inputs": [
        {
          "indexed": true,
          "internalType": "address",
          "name": "previousOwner",
          "type": "address"
        },
        {
          "indexed": true,
          "internalType": "address",
          "name": "newOwner",
          "type": "address"
        }
      ],
      "name": "OwnershipTransferred",
      "type": "event"
    },
    {
      "anonymous": false,
      "inputs": [
        {
          "indexed": false,
          "internalType": "uint256",
          "name": "requestId",
          "type": "uint256"
        },
        {
          "indexed": false,
          "internalType": "uint256[]",
          "name": "randomWords",
          "type": "uint256[]"
        }
      ],
      "name": "RequestFulfilled",
      "type": "event"
    },
    {
      "anonymous": false,
      "inputs": [
        {
          "indexed": false,
          "internalType": "uint256",
          "name": "requestId",
          "type": "uint256"
        },
        {
          "indexed": false,
          "internalType": "uint32",
          "name": "numWords",
          "type": "uint32"
        }
      ],
      "name": "RequestSent",
      "type": "event"
    },
    {
      "anonymous": false,
      "inputs": [
        {
          "indexed": true,
          "internalType": "address",
          "name": "buyer",
          "type": "address"
        },
        {
          "indexed": false,
          "internalType": "uint256",
          "name": "price",
          "type": "uint256"
        },
        {
          "indexed": false,
          "internalType": "uint256",
          "name": "ticketNumber",
          "type": "uint256"
        }
      ],
      "name": "TicketBought",
      "type": "event"
    },
    {
      "inputs": [],
      "name": "configFinishTime",
      "outputs": [
        {
          "internalType": "uint256",
          "name": "",
          "type": "uint256"
        }
      ],
      "stateMutability": "view",
      "type": "function",
      "constant": true
    },
    {
      "inputs": [],
      "name": "configTimeToClaim",
      "outputs": [
        {
          "internalType": "uint256",
          "name": "",
          "type": "uint256"
        }
      ],
      "stateMutability": "view",
      "type": "function",
      "constant": true
    },
    {
      "inputs": [],
      "name": "fee",
      "outputs": [
        {
          "internalType": "uint256",
          "name": "",
          "type": "uint256"
        }
      ],
      "stateMutability": "view",
      "type": "function",
      "constant": true
    },
    {
      "inputs": [
        {
          "internalType": "uint256",
          "name": "_requestId",
          "type": "uint256"
        }
      ],
      "name": "getRequestStatus",
      "outputs": [
        {
          "internalType": "bool",
          "name": "fulfilled",
          "type": "bool"
        },
        {
          "internalType": "uint256[]",
          "name": "randomWords",
          "type": "uint256[]"
        }
      ],
      "stateMutability": "view",
      "type": "function",
      "constant": true
    },
    {
      "inputs": [],
      "name": "lastRequestId",
      "outputs": [
        {
          "internalType": "uint256",
          "name": "",
          "type": "uint256"
        }
      ],
      "stateMutability": "view",
      "type": "function",
      "constant": true
    },
    {
      "inputs": [],
      "name": "lotteryId",
      "outputs": [
        {
          "internalType": "uint256",
          "name": "_value",
          "type": "uint256"
        }
      ],
      "stateMutability": "view",
      "type": "function",
      "constant": true
    },
    {
      "inputs": [],
      "name": "lotteryName",
      "outputs": [
        {
          "internalType": "string",
          "name": "",
          "type": "string"
        }
      ],
      "stateMutability": "view",
      "type": "function",
      "constant": true
    },
    {
      "inputs": [],
      "name": "minTicket",
      "outputs": [
        {
          "internalType": "uint32",
          "name": "",
          "type": "uint32"
        }
      ],
      "stateMutability": "view",
      "type": "function",
      "constant": true
    },
    {
      "inputs": [],
      "name": "owner",
      "outputs": [
        {
          "internalType": "address",
          "name": "",
          "type": "address"
        }
      ],
      "stateMutability": "view",
      "type": "function",
      "constant": true
    },
    {
      "inputs": [
        {
          "internalType": "uint256",
          "name": "requestId",
          "type": "uint256"
        },
        {
          "internalType": "uint256[]",
          "name": "randomWords",
          "type": "uint256[]"
        }
      ],
      "name": "rawFulfillRandomWords",
      "outputs": [],
      "stateMutability": "nonpayable",
      "type": "function"
    },
    {
      "inputs": [],
      "name": "renounceOwnership",
      "outputs": [],
      "stateMutability": "nonpayable",
      "type": "function"
    },
    {
      "inputs": [
        {
          "internalType": "uint256",
          "name": "",
          "type": "uint256"
        }
      ],
      "name": "requestIds",
      "outputs": [
        {
          "internalType": "uint256",
          "name": "",
          "type": "uint256"
        }
      ],
      "stateMutability": "view",
      "type": "function",
      "constant": true
    },
    {
      "inputs": [
        {
          "internalType": "uint256",
          "name": "",
          "type": "uint256"
        }
      ],
      "name": "s_requests",
      "outputs": [
        {
          "internalType": "bool",
          "name": "fulfilled",
          "type": "bool"
        },
        {
          "internalType": "bool",
          "name": "exists",
          "type": "bool"
        }
      ],
      "stateMutability": "view",
      "type": "function",
      "constant": true
    },
    {
      "inputs": [
        {
          "internalType": "uint32",
          "name": "_callBackGasLimit",
          "type": "uint32"
        }
      ],
      "name": "setCallBackGasLimit",
      "outputs": [],
      "stateMutability": "nonpayable",
      "type": "function"
    },
    {
      "inputs": [
        {
          "internalType": "bytes32",
          "name": "_keyHash",
          "type": "bytes32"
        }
      ],
      "name": "setKeyHashValue",
      "outputs": [],
      "stateMutability": "nonpayable",
      "type": "function"
    },
    {
      "inputs": [
        {
          "internalType": "uint16",
          "name": "_requestConfirmations",
          "type": "uint16"
        }
      ],
      "name": "setRequestConfirmations",
      "outputs": [],
      "stateMutability": "nonpayable",
      "type": "function"
    },
    {
      "inputs": [
        {
          "internalType": "uint64",
          "name": "_s_subscriptionId",
          "type": "uint64"
        }
      ],
      "name": "setSubscriptionId",
      "outputs": [],
      "stateMutability": "nonpayable",
      "type": "function"
    },
    {
      "inputs": [],
      "name": "ticketPrice",
      "outputs": [
        {
          "internalType": "uint256",
          "name": "",
          "type": "uint256"
        }
      ],
      "stateMutability": "view",
      "type": "function",
      "constant": true
    },
    {
      "inputs": [
        {
          "internalType": "address",
          "name": "newOwner",
          "type": "address"
        }
      ],
      "name": "transferOwnership",
      "outputs": [],
      "stateMutability": "nonpayable",
      "type": "function"
    },
    {
      "inputs": [],
      "name": "buyTicket",
      "outputs": [],
      "stateMutability": "payable",
      "type": "function",
      "payable": true
    },
    {
      "inputs": [
        {
          "internalType": "uint256",
          "name": "lotteryIndex",
          "type": "uint256"
        }
      ],
      "name": "claim",
      "outputs": [],
      "stateMutability": "nonpayable",
      "type": "function"
    },
    {
      "inputs": [
        {
          "internalType": "uint256",
          "name": "lotteryIndex",
          "type": "uint256"
        }
      ],
      "name": "claimExpiredLottery",
      "outputs": [],
      "stateMutability": "nonpayable",
      "type": "function"
    },
    {
      "inputs": [
        {
          "internalType": "string",
          "name": "_name",
          "type": "string"
        },
        {
          "internalType": "uint256",
          "name": "_ticketPrice",
          "type": "uint256"
        },
        {
          "internalType": "uint32",
          "name": "_minTicket",
          "type": "uint32"
        },
        {
          "internalType": "uint256",
          "name": "_configFinishTime",
          "type": "uint256"
        },
        {
          "internalType": "uint256",
          "name": "_configTimeToClaim",
          "type": "uint256"
        },
        {
          "internalType": "uint256",
          "name": "_fee",
          "type": "uint256"
        }
      ],
      "name": "setProperties",
      "outputs": [],
      "stateMutability": "nonpayable",
      "type": "function"
    },
    {
      "inputs": [
        {
          "internalType": "uint256",
          "name": "_lotteryId",
          "type": "uint256"
        }
      ],
      "name": "getLotteryStatus",
      "outputs": [
        {
          "components": [
            {
              "internalType": "string",
              "name": "name",
              "type": "string"
            },
            {
              "internalType": "uint256",
              "name": "ticketPrice",
              "type": "uint256"
            },
            {
              "components": [
                {
                  "internalType": "uint256",
                  "name": "_value",
                  "type": "uint256"
                }
              ],
              "internalType": "struct Counters.Counter",
              "name": "ticketsCount",
              "type": "tuple"
            },
            {
              "internalType": "uint256",
              "name": "startedTime",
              "type": "uint256"
            },
            {
              "internalType": "uint256",
              "name": "balance",
              "type": "uint256"
            },
            {
              "internalType": "bool",
              "name": "finalized",
              "type": "bool"
            },
            {
              "internalType": "uint256",
              "name": "indexChainLink",
              "type": "uint256"
            },
            {
              "internalType": "address",
              "name": "winner",
              "type": "address"
            },
            {
              "internalType": "bool",
              "name": "claimed",
              "type": "bool"
            },
            {
              "internalType": "uint32",
              "name": "minTicket",
              "type": "uint32"
            },
            {
              "internalType": "bool",
              "name": "finishTrigger",
              "type": "bool"
            },
            {
              "internalType": "uint256",
              "name": "timeToFinish",
              "type": "uint256"
            },
            {
              "internalType": "uint256",
              "name": "timeToClaim",
              "type": "uint256"
            }
          ],
          "internalType": "struct Lottery.LotteryStruct",
          "name": "_lottery",
          "type": "tuple"
        }
      ],
      "stateMutability": "view",
      "type": "function",
      "constant": true
    },
    {
      "inputs": [
        {
          "internalType": "uint256",
          "name": "_lotteryId",
          "type": "uint256"
        },
        {
          "internalType": "address",
          "name": "_user",
          "type": "address"
        }
      ],
      "name": "getUserStatus",
      "outputs": [
        {
          "components": [
            {
              "internalType": "bool",
              "name": "hasTicket",
              "type": "bool"
            },
            {
              "internalType": "bool",
              "name": "claimed",
              "type": "bool"
            },
            {
              "components": [
                {
                  "internalType": "uint256",
                  "name": "ticketId",
                  "type": "uint256"
                },
                {
                  "internalType": "uint256",
                  "name": "timestamp",
                  "type": "uint256"
                }
              ],
              "internalType": "struct Lottery.Ticket[]",
              "name": "tickets",
              "type": "tuple[]"
            }
          ],
          "internalType": "struct Lottery.User",
          "name": "_returnedUser",
          "type": "tuple"
        }
      ],
      "stateMutability": "view",
      "type": "function",
      "constant": true
    },
    {
      "inputs": [
        {
          "internalType": "bytes",
          "name": "",
          "type": "bytes"
        }
      ],
      "name": "checkUpkeep",
      "outputs": [
        {
          "internalType": "bool",
          "name": "upkeepNeeded",
          "type": "bool"
        },
        {
          "internalType": "bytes",
          "name": "",
          "type": "bytes"
        }
      ],
      "stateMutability": "view",
      "type": "function",
      "constant": true
    },
    {
      "inputs": [
        {
          "internalType": "bytes",
          "name": "",
          "type": "bytes"
        }
      ],
      "name": "performUpkeep",
      "outputs": [],
      "stateMutability": "nonpayable",
      "type": "function"
    }
  ],
  "bytecode": "0x60a06040523480156200001157600080fd5b5060405162004ec738038062004ec7833981810160405281019062000037919062000628565b868686818073ffffffffffffffffffffffffffffffffffffffff1660808173ffffffffffffffffffffffffffffffffffffffff16815250505062000090620000846200025a60201b60201c565b6200026260201b60201c565b6001808190555081600360006101000a81548173ffffffffffffffffffffffffffffffffffffffff021916908373ffffffffffffffffffffffffffffffffffffffff16021790555082600360146101000a81548167ffffffffffffffff021916908367ffffffffffffffff160217905550806006819055506207a120600760006101000a81548163ffffffff021916908363ffffffff1602179055506003600760046101000a81548161ffff021916908361ffff160217905550505050600062000166600b6200032660201b62001d2f1760201c565b905084600a600083815260200190815260200160002060000190816200018d91906200093b565b5083600a60008381526020019081526020016000206001018190555082600a600083815260200190815260200160002060070160156101000a81548163ffffffff021916908363ffffffff16021790555042600a60008381526020019081526020016000206003018190555081600c8190555084601190816200021191906200093b565b50610258600d81905550610258600e819055508360108190555082600f60006101000a81548163ffffffff021916908363ffffffff160217905550505050505050505062000a22565b600033905090565b60008060009054906101000a900473ffffffffffffffffffffffffffffffffffffffff169050816000806101000a81548173ffffffffffffffffffffffffffffffffffffffff021916908373ffffffffffffffffffffffffffffffffffffffff1602179055508173ffffffffffffffffffffffffffffffffffffffff168173ffffffffffffffffffffffffffffffffffffffff167f8be0079c531659141344cd1fd0a4f28419497f9722a3daafe3b4186f6b6457e060405160405180910390a35050565b600081600001549050919050565b6000604051905090565b600080fd5b600080fd5b600067ffffffffffffffff82169050919050565b620003678162000348565b81146200037357600080fd5b50565b60008151905062000387816200035c565b92915050565b600073ffffffffffffffffffffffffffffffffffffffff82169050919050565b6000620003ba826200038d565b9050919050565b620003cc81620003ad565b8114620003d857600080fd5b50565b600081519050620003ec81620003c1565b92915050565b6000819050919050565b6200040781620003f2565b81146200041357600080fd5b50565b6000815190506200042781620003fc565b92915050565b600080fd5b600080fd5b6000601f19601f8301169050919050565b7f4e487b7100000000000000000000000000000000000000000000000000000000600052604160045260246000fd5b620004828262000437565b810181811067ffffffffffffffff82111715620004a457620004a362000448565b5b80604052505050565b6000620004b962000334565b9050620004c7828262000477565b919050565b600067ffffffffffffffff821115620004ea57620004e962000448565b5b620004f58262000437565b9050602081019050919050565b60005b838110156200052257808201518184015260208101905062000505565b60008484015250505050565b6000620005456200053f84620004cc565b620004ad565b90508281526020810184848401111562000564576200056362000432565b5b6200057184828562000502565b509392505050565b600082601f8301126200059157620005906200042d565b5b8151620005a38482602086016200052e565b91505092915050565b6000819050919050565b620005c181620005ac565b8114620005cd57600080fd5b50565b600081519050620005e181620005b6565b92915050565b600063ffffffff82169050919050565b6200060281620005e7565b81146200060e57600080fd5b50565b6000815190506200062281620005f7565b92915050565b600080600080600080600060e0888a0312156200064a57620006496200033e565b5b60006200065a8a828b0162000376565b97505060206200066d8a828b01620003db565b9650506040620006808a828b0162000416565b955050606088015167ffffffffffffffff811115620006a457620006a362000343565b5b620006b28a828b0162000579565b9450506080620006c58a828b01620005d0565b93505060a0620006d88a828b0162000611565b92505060c0620006eb8a828b01620005d0565b91505092959891949750929550565b600081519050919050565b7f4e487b7100000000000000000000000000000000000000000000000000000000600052602260045260246000fd5b600060028204905060018216806200074d57607f821691505b60208210810362000763576200076262000705565b5b50919050565b60008190508160005260206000209050919050565b60006020601f8301049050919050565b600082821b905092915050565b600060088302620007cd7fffffffffffffffffffffffffffffffffffffffffffffffffffffffffffffffff826200078e565b620007d986836200078e565b95508019841693508086168417925050509392505050565b6000819050919050565b60006200081c620008166200081084620005ac565b620007f1565b620005ac565b9050919050565b6000819050919050565b6200083883620007fb565b62000850620008478262000823565b8484546200079b565b825550505050565b600090565b6200086762000858565b620008748184846200082d565b505050565b5b818110156200089c57620008906000826200085d565b6001810190506200087a565b5050565b601f821115620008eb57620008b58162000769565b620008c0846200077e565b81016020851015620008d0578190505b620008e8620008df856200077e565b83018262000879565b50505b505050565b600082821c905092915050565b60006200091060001984600802620008f0565b1980831691505092915050565b60006200092b8383620008fd565b9150826002028217905092915050565b6200094682620006fa565b67ffffffffffffffff81111562000962576200096162000448565b5b6200096e825462000734565b6200097b828285620008a0565b600060209050601f831160018114620009b357600084156200099e578287015190505b620009aa85826200091d565b86555062000a1a565b601f198416620009c38662000769565b60005b82811015620009ed57848901518255600182019150602085019450602081019050620009c6565b8683101562000a0d578489015162000a09601f891682620008fd565b8355505b6001600288020188555050505b505050505050565b60805161448262000a456000396000818161065801526106ac01526144826000f3fe60806040526004361061019c5760003560e01c80638ff72293116100ec578063e575df721161008a578063edca914c11610064578063edca914c146105c7578063f2fde38b146105d1578063f6a30e3e146105fa578063fc2a88c3146106255761019c565b8063e575df7214610536578063e580f47b14610573578063ea7b4f771461059e5761019c565b8063a7348e5f116100c6578063a7348e5f1461047b578063c468bf9c146104a4578063d8a4676f146104cd578063ddca3f431461050b5761019c565b80638ff72293146103d7578063982d808414610414578063a168fa891461043d5761019c565b80636e04ff0d116101595780638796ba8c116101335780638796ba8c1461031b5780638824f5a71461035857806389737fcf146103815780638da5cb5b146103ac5761019c565b80636e04ff0d1461029b578063715018a6146102d95780637cbcbd3c146102f05761019c565b80631209b1f6146101a15780631fe543e3146101cc57806323d14149146101f5578063379607f5146102205780634585e33b146102495780635cc2969514610272575b600080fd5b3480156101ad57600080fd5b506101b6610650565b6040516101c391906127a6565b60405180910390f35b3480156101d857600080fd5b506101f360048036038101906101ee919061295a565b610656565b005b34801561020157600080fd5b5061020a610716565b6040516102179190612a35565b60405180910390f35b34801561022c57600080fd5b5061024760048036038101906102429190612a57565b6107a4565b005b34801561025557600080fd5b50610270600480360381019061026b9190612adf565b610d41565b005b34801561027e57600080fd5b5061029960048036038101906102949190612c1d565b610de0565b005b3480156102a757600080fd5b506102c260048036038101906102bd9190612adf565b610ec9565b6040516102d0929190612d36565b60405180910390f35b3480156102e557600080fd5b506102ee610f2a565b005b3480156102fc57600080fd5b50610305610f3e565b60405161031291906127a6565b60405180910390f35b34801561032757600080fd5b50610342600480360381019061033d9190612a57565b610f44565b60405161034f91906127a6565b60405180910390f35b34801561036457600080fd5b5061037f600480360381019061037a9190612da0565b610f68565b005b34801561038d57600080fd5b50610396610f90565b6040516103a391906127a6565b60405180910390f35b3480156103b857600080fd5b506103c1610f96565b6040516103ce9190612e0e565b60405180910390f35b3480156103e357600080fd5b506103fe60048036038101906103f99190612a57565b610fbf565b60405161040b9190612fe4565b60405180910390f35b34801561042057600080fd5b5061043b60048036038101906104369190613006565b6111a6565b005b34801561044957600080fd5b50610464600480360381019061045f9190612a57565b6111d2565b604051610472929190613033565b60405180910390f35b34801561048757600080fd5b506104a2600480360381019061049d9190613092565b611210565b005b3480156104b057600080fd5b506104cb60048036038101906104c69190612a57565b611222565b005b3480156104d957600080fd5b506104f460048036038101906104ef9190612a57565b611522565b60405161050292919061316e565b60405180910390f35b34801561051757600080fd5b5061052061164d565b60405161052d91906127a6565b60405180910390f35b34801561054257600080fd5b5061055d600480360381019061055891906131ca565b611653565b60405161056a9190613338565b60405180910390f35b34801561057f57600080fd5b50610588611767565b60405161059591906127a6565b60405180910390f35b3480156105aa57600080fd5b506105c560048036038101906105c0919061339a565b611773565b005b6105cf6117a7565b005b3480156105dd57600080fd5b506105f860048036038101906105f391906133c7565b611c90565b005b34801561060657600080fd5b5061060f611d13565b60405161061c9190613403565b60405180910390f35b34801561063157600080fd5b5061063a611d29565b60405161064791906127a6565b60405180910390f35b60105481565b7f000000000000000000000000000000000000000000000000000000000000000073ffffffffffffffffffffffffffffffffffffffff163373ffffffffffffffffffffffffffffffffffffffff161461070857337f00000000000000000000000000000000000000000000000000000000000000006040517f1cf993f40000000000000000000000000000000000000000000000000000000081526004016106ff92919061341e565b60405180910390fd5b6107128282611d3d565b5050565b6011805461072390613476565b80601f016020809104026020016040519081016040528092919081815260200182805461074f90613476565b801561079c5780601f106107715761010080835404028352916020019161079c565b820191906000526020600020905b81548152906001019060200180831161077f57829003601f168201915b505050505081565b6107ac611ec9565b600a600082815260200190815260200160002060070160149054906101000a900460ff1615610810576040517f08c379a000000000000000000000000000000000000000000000000000000000815260040161080790613519565b60405180910390fd5b600a600082815260200190815260200160002060050160009054906101000a900460ff16610873576040517f08c379a000000000000000000000000000000000000000000000000000000000815260040161086a906135ab565b60405180910390fd5b600073ffffffffffffffffffffffffffffffffffffffff16600a600083815260200190815260200160002060070160009054906101000a900473ffffffffffffffffffffffffffffffffffffffff1673ffffffffffffffffffffffffffffffffffffffff1603610918576040517f08c379a000000000000000000000000000000000000000000000000000000000815260040161090f9061363d565b60405180910390fd5b3373ffffffffffffffffffffffffffffffffffffffff16600a600083815260200190815260200160002060070160009054906101000a900473ffffffffffffffffffffffffffffffffffffffff1673ffffffffffffffffffffffffffffffffffffffff16146109bc576040517f08c379a00000000000000000000000000000000000000000000000000000000081526004016109b3906136a9565b60405180910390fd5b6008600082815260200190815260200160002060003373ffffffffffffffffffffffffffffffffffffffff1673ffffffffffffffffffffffffffffffffffffffff16815260200190815260200160002060000160009054906101000a900460ff16610a5c576040517f08c379a0000000000000000000000000000000000000000000000000000000008152600401610a539061373b565b60405180910390fd5b6008600082815260200190815260200160002060003373ffffffffffffffffffffffffffffffffffffffff1673ffffffffffffffffffffffffffffffffffffffff16815260200190815260200160002060000160019054906101000a900460ff1615610afd576040517f08c379a0000000000000000000000000000000000000000000000000000000008152600401610af4906137cd565b60405180910390fd5b6001600a600083815260200190815260200160002060070160146101000a81548160ff02191690831515021790555060006008600083815260200190815260200160002060003373ffffffffffffffffffffffffffffffffffffffff1673ffffffffffffffffffffffffffffffffffffffff16815260200190815260200160002060000160006101000a81548160ff02191690831515021790555060016008600083815260200190815260200160002060003373ffffffffffffffffffffffffffffffffffffffff1673ffffffffffffffffffffffffffffffffffffffff16815260200190815260200160002060000160016101000a81548160ff0219169083151502179055506000610c25600a600084815260200190815260200160002060040154611f18565b9050600081600a600085815260200190815260200160002060040154610c4b919061381c565b9050610c55610f96565b73ffffffffffffffffffffffffffffffffffffffff166108fc839081150290604051600060405180830381858888f19350505050158015610c9a573d6000803e3d6000fd5b503373ffffffffffffffffffffffffffffffffffffffff166108fc829081150290604051600060405180830381858888f19350505050158015610ce1573d6000803e3d6000fd5b503373ffffffffffffffffffffffffffffffffffffffff167f588837c8642bd1b376f9f89a12784072019e42aa3f6412a48ebd1f450a113e18848385604051610d2c93929190613850565b60405180910390a25050610d3e611f3b565b50565b6000610d4d600b611d2f565b9050600a600082815260200190815260200160002060070160199054906101000a900460ff168015610d945750600a60008281526020019081526020016000206008015442115b610dd3576040517f08c379a0000000000000000000000000000000000000000000000000000000008152600401610dca906138d3565b60405180910390fd5b610ddb611f44565b505050565b610de861210c565b601e811115610e2c576040517f08c379a0000000000000000000000000000000000000000000000000000000008152600401610e239061393f565b60405180910390fd5b80600c8190555082600d8190555081600e819055508460108190555083600f60006101000a81548163ffffffff021916908363ffffffff1602179055503373ffffffffffffffffffffffffffffffffffffffff167fdfcfcdeac7cdd38c4b0a0537d363f95fa8d7cce818fd23989dc2f35f11a90ae3878784888888604051610eb99695949392919061395f565b60405180910390a2505050505050565b600060606000610ed9600b611d2f565b9050600a600082815260200190815260200160002060070160199054906101000a900460ff168015610f205750600a60008281526020019081526020016000206008015442115b9250509250929050565b610f3261210c565b610f3c600061218a565b565b600d5481565b60048181548110610f5457600080fd5b906000526020600020016000915090505481565b610f7061210c565b80600760046101000a81548161ffff021916908361ffff16021790555050565b600e5481565b60008060009054906101000a900473ffffffffffffffffffffffffffffffffffffffff16905090565b610fc761265b565b600a6000838152602001908152602001600020604051806101a0016040529081600082018054610ff690613476565b80601f016020809104026020016040519081016040528092919081815260200182805461102290613476565b801561106f5780601f106110445761010080835404028352916020019161106f565b820191906000526020600020905b81548152906001019060200180831161105257829003601f168201915b505050505081526020016001820154815260200160028201604051806020016040529081600082015481525050815260200160038201548152602001600482015481526020016005820160009054906101000a900460ff16151515158152602001600682015481526020016007820160009054906101000a900473ffffffffffffffffffffffffffffffffffffffff1673ffffffffffffffffffffffffffffffffffffffff1673ffffffffffffffffffffffffffffffffffffffff1681526020016007820160149054906101000a900460ff161515151581526020016007820160159054906101000a900463ffffffff1663ffffffff1663ffffffff1681526020016007820160199054906101000a900460ff16151515158152602001600882015481526020016009820154815250509050919050565b6111ae61210c565b80600760006101000a81548163ffffffff021916908363ffffffff16021790555050565b60026020528060005260406000206000915090508060000160009054906101000a900460ff16908060000160019054906101000a900460ff16905082565b61121861210c565b8060068190555050565b61122a61210c565b600a600082815260200190815260200160002060070160149054906101000a900460ff161561128e576040517f08c379a000000000000000000000000000000000000000000000000000000000815260040161128590613519565b60405180910390fd5b600a600082815260200190815260200160002060050160009054906101000a900460ff166112f1576040517f08c379a00000000000000000000000000000000000000000000000000000000081526004016112e8906135ab565b60405180910390fd5b600073ffffffffffffffffffffffffffffffffffffffff16600a600083815260200190815260200160002060070160009054906101000a900473ffffffffffffffffffffffffffffffffffffffff1673ffffffffffffffffffffffffffffffffffffffff1603611396576040517f08c379a000000000000000000000000000000000000000000000000000000000815260040161138d9061363d565b60405180910390fd5b42600a600083815260200190815260200160002060090154106113ee576040517f08c379a00000000000000000000000000000000000000000000000000000000081526004016113e590613a39565b60405180910390fd5b6001600a600083815260200190815260200160002060070160146101000a81548160ff021916908315150217905550611425610f96565b73ffffffffffffffffffffffffffffffffffffffff166108fc600a6000848152602001908152602001600020600401549081150290604051600060405180830381858888f19350505050158015611480573d6000803e3d6000fd5b50600a600082815260200190815260200160002060070160009054906101000a900473ffffffffffffffffffffffffffffffffffffffff1673ffffffffffffffffffffffffffffffffffffffff167f18871ffdb80828adbbab2e9a9ecbe66822633e5b565d86f4fe5cbbd6871f02793383600a60008681526020019081526020016000206004015460405161151793929190613a59565b60405180910390a250565b600060606002600084815260200190815260200160002060000160019054906101000a900460ff16611589576040517f08c379a000000000000000000000000000000000000000000000000000000000815260040161158090613adc565b60405180910390fd5b6000600260008581526020019081526020016000206040518060600160405290816000820160009054906101000a900460ff161515151581526020016000820160019054906101000a900460ff161515151581526020016001820180548060200260200160405190810160405280929190818152602001828054801561162e57602002820191906000526020600020905b81548152602001906001019080831161161a575b5050505050815250509050806000015181604001519250925050915091565b600c5481565b61165b6126eb565b6008600084815260200190815260200160002060008373ffffffffffffffffffffffffffffffffffffffff1673ffffffffffffffffffffffffffffffffffffffff1681526020019081526020016000206040518060600160405290816000820160009054906101000a900460ff161515151581526020016000820160019054906101000a900460ff1615151515815260200160018201805480602002602001604051908101604052809291908181526020016000905b8282101561175757838290600052602060002090600202016040518060400160405290816000820154815260200160018201548152505081526020019060010190611711565b5050505081525050905092915050565b600b8060000154905081565b61177b61210c565b80600360146101000a81548167ffffffffffffffff021916908367ffffffffffffffff16021790555050565b6117af611ec9565b60006117bb600b611d2f565b9050600a600082815260200190815260200160002060050160009054906101000a900460ff1615611821576040517f08c379a000000000000000000000000000000000000000000000000000000000815260040161181890613b6e565b60405180910390fd5b34600a60008381526020019081526020016000206001015414611879576040517f08c379a000000000000000000000000000000000000000000000000000000000815260040161187090613c00565b60405180910390fd5b6000611899600a6000848152602001908152602001600020600201611d2f565b90506118b9600a600084815260200190815260200160002060020161224e565b60016008600084815260200190815260200160002060003373ffffffffffffffffffffffffffffffffffffffff1673ffffffffffffffffffffffffffffffffffffffff16815260200190815260200160002060000160006101000a81548160ff02191690831515021790555060006008600084815260200190815260200160002060003373ffffffffffffffffffffffffffffffffffffffff1673ffffffffffffffffffffffffffffffffffffffff16815260200190815260200160002060000160016101000a81548160ff0219169083151502179055506008600083815260200190815260200160002060003373ffffffffffffffffffffffffffffffffffffffff1673ffffffffffffffffffffffffffffffffffffffff1681526020019081526020016000206001016040518060400160405280838152602001428152509080600181540180825580915050600190039060005260206000209060020201600090919091909150600082015181600001556020820151816001015550503360096000848152602001908152602001600020600083815260200190815260200160002060006101000a81548173ffffffffffffffffffffffffffffffffffffffff021916908373ffffffffffffffffffffffffffffffffffffffff16021790555034600a60008481526020019081526020016000206004016000828254611ac19190613c20565b925050819055506000611ae8600a6000858152602001908152602001600020600201611d2f565b9050600a600084815260200190815260200160002060070160199054906101000a900460ff16158015611b475750600a600084815260200190815260200160002060070160159054906101000a900463ffffffff1663ffffffff168110155b15611c33576001600a600085815260200190815260200160002060070160196101000a81548160ff021916908315150217905550600d5442611b899190613c20565b600a6000858152602001908152602001600020600801819055507f3dcdfcde0ffa80946025c1000bff52fe117ec934dfc3c45fc9cfaa064c91c18c81600a600086815260200190815260200160002060070160159054906101000a900463ffffffff16600a600087815260200190815260200160002060040154600a600088815260200190815260200160002060080154604051611c2a9493929190613c54565b60405180910390a15b3373ffffffffffffffffffffffffffffffffffffffff167f97fac0ce6558f4accbb4696915809c0ef7023ffe7ba9454e94d49fb652aae1d53485604051611c7b929190613c99565b60405180910390a2505050611c8e611f3b565b565b611c9861210c565b600073ffffffffffffffffffffffffffffffffffffffff168173ffffffffffffffffffffffffffffffffffffffff1603611d07576040517f08c379a0000000000000000000000000000000000000000000000000000000008152600401611cfe90613d34565b60405180910390fd5b611d108161218a565b50565b600f60009054906101000a900463ffffffff1681565b60055481565b600081600001549050919050565b611d478282612264565b6000611d53600b611d2f565b90506000611d75600a6000848152602001908152602001600020600201611d2f565b9050600a6000838152602001908152602001600020600601548403611ec3576009600083815260200190815260200160002060008285600081518110611dbe57611dbd613d54565b5b6020026020010151611dd09190613db2565b815260200190815260200160002060009054906101000a900473ffffffffffffffffffffffffffffffffffffffff16600a600084815260200190815260200160002060070160006101000a81548173ffffffffffffffffffffffffffffffffffffffff021916908373ffffffffffffffffffffffffffffffffffffffff160217905550600e5442611e619190613c20565b600a600084815260200190815260200160002060090181905550611e8361235e565b611ec2576040517f08c379a0000000000000000000000000000000000000000000000000000000008152600401611eb990613e2f565b60405180910390fd5b5b50505050565b600260015403611f0e576040517f08c379a0000000000000000000000000000000000000000000000000000000008152600401611f0590613e9b565b60405180910390fd5b6002600181905550565b60006064600c5483611f2a9190613ebb565b611f349190613efd565b9050919050565b60018081905550565b6000611f50600b611d2f565b90506000611f72600a6000848152602001908152602001600020600201611d2f565b905080600a600084815260200190815260200160002060070160159054906101000a900463ffffffff1663ffffffff161115611fe3576040517f08c379a0000000000000000000000000000000000000000000000000000000008152600401611fda90613f7a565b60405180910390fd5b600a600083815260200190815260200160002060050160009054906101000a900460ff1615612047576040517f08c379a000000000000000000000000000000000000000000000000000000000815260040161203e90613fe6565b60405180910390fd5b6001600a600084815260200190815260200160002060050160006101000a81548160ff0219169083151502179055506120806001612424565b600a6000848152602001908152602001600020600601819055507f9337fa876371ba7a2ae0a3fd96612bed9a9baaff955d10f3c0168d544f7a053733600a6000858152602001908152602001600020600401546120f1600a6000878152602001908152602001600020600201611d2f565b60405161210093929190613a59565b60405180910390a15050565b612114612653565b73ffffffffffffffffffffffffffffffffffffffff16612132610f96565b73ffffffffffffffffffffffffffffffffffffffff1614612188576040517f08c379a000000000000000000000000000000000000000000000000000000000815260040161217f90614052565b60405180910390fd5b565b60008060009054906101000a900473ffffffffffffffffffffffffffffffffffffffff169050816000806101000a81548173ffffffffffffffffffffffffffffffffffffffff021916908373ffffffffffffffffffffffffffffffffffffffff1602179055508173ffffffffffffffffffffffffffffffffffffffff168173ffffffffffffffffffffffffffffffffffffffff167f8be0079c531659141344cd1fd0a4f28419497f9722a3daafe3b4186f6b6457e060405160405180910390a35050565b6001816000016000828254019250508190555050565b6002600083815260200190815260200160002060000160019054906101000a900460ff166122c7576040517f08c379a00000000000000000000000000000000000000000000000000000000081526004016122be90613adc565b60405180910390fd5b60016002600084815260200190815260200160002060000160006101000a81548160ff02191690831515021790555080600260008481526020019081526020016000206001019080519060200190612320929190612710565b507ffe2e2d779dba245964d4e3ef9b994be63856fd568bf7d3ca9e224755cb1bd54d8282604051612352929190614072565b60405180910390a15050565b600061236a600b61224e565b6000612376600b611d2f565b90506011600a6000838152602001908152602001600020600001908161239c9190614279565b50601054600a600083815260200190815260200160002060010181905550600f60009054906101000a900463ffffffff16600a600083815260200190815260200160002060070160156101000a81548163ffffffff021916908363ffffffff16021790555042600a600083815260200190815260200160002060030181905550600191505090565b6000600360009054906101000a900473ffffffffffffffffffffffffffffffffffffffff1673ffffffffffffffffffffffffffffffffffffffff16635d3b1d30600654600360149054906101000a900467ffffffffffffffff16600760049054906101000a900461ffff16600760009054906101000a900463ffffffff16876040518663ffffffff1660e01b81526004016124c395949392919061438e565b6020604051808303816000875af11580156124e2573d6000803e3d6000fd5b505050506040513d601f19601f8201168201806040525081019061250691906143f6565b90506040518060600160405280600015158152602001600115158152602001600067ffffffffffffffff8111156125405761253f612817565b5b60405190808252806020026020018201604052801561256e5781602001602082028036833780820191505090505b508152506002600083815260200190815260200160002060008201518160000160006101000a81548160ff02191690831515021790555060208201518160000160016101000a81548160ff02191690831515021790555060408201518160010190805190602001906125e1929190612710565b509050506004819080600181540180825580915050600190039060005260206000200160009091909190915055806005819055507fcc58b13ad3eab50626c6a6300b1d139cd6ebb1688a7cced9461c2f7e762665ee8183604051612646929190614423565b60405180910390a1919050565b600033905090565b604051806101a00160405280606081526020016000815260200161267d61275d565b8152602001600081526020016000815260200160001515815260200160008152602001600073ffffffffffffffffffffffffffffffffffffffff168152602001600015158152602001600063ffffffff16815260200160001515815260200160008152602001600081525090565b6040518060600160405280600015158152602001600015158152602001606081525090565b82805482825590600052602060002090810192821561274c579160200282015b8281111561274b578251825591602001919060010190612730565b5b5090506127599190612770565b5090565b6040518060200160405280600081525090565b5b80821115612789576000816000905550600101612771565b5090565b6000819050919050565b6127a08161278d565b82525050565b60006020820190506127bb6000830184612797565b92915050565b6000604051905090565b600080fd5b600080fd5b6127de8161278d565b81146127e957600080fd5b50565b6000813590506127fb816127d5565b92915050565b600080fd5b6000601f19601f8301169050919050565b7f4e487b7100000000000000000000000000000000000000000000000000000000600052604160045260246000fd5b61284f82612806565b810181811067ffffffffffffffff8211171561286e5761286d612817565b5b80604052505050565b60006128816127c1565b905061288d8282612846565b919050565b600067ffffffffffffffff8211156128ad576128ac612817565b5b602082029050602081019050919050565b600080fd5b60006128d66128d184612892565b612877565b905080838252602082019050602084028301858111156128f9576128f86128be565b5b835b81811015612922578061290e88826127ec565b8452602084019350506020810190506128fb565b5050509392505050565b600082601f83011261294157612940612801565b5b81356129518482602086016128c3565b91505092915050565b60008060408385031215612971576129706127cb565b5b600061297f858286016127ec565b925050602083013567ffffffffffffffff8111156129a05761299f6127d0565b5b6129ac8582860161292c565b9150509250929050565b600081519050919050565b600082825260208201905092915050565b60005b838110156129f05780820151818401526020810190506129d5565b60008484015250505050565b6000612a07826129b6565b612a1181856129c1565b9350612a218185602086016129d2565b612a2a81612806565b840191505092915050565b60006020820190508181036000830152612a4f81846129fc565b905092915050565b600060208284031215612a6d57612a6c6127cb565b5b6000612a7b848285016127ec565b91505092915050565b600080fd5b60008083601f840112612a9f57612a9e612801565b5b8235905067ffffffffffffffff811115612abc57612abb612a84565b5b602083019150836001820283011115612ad857612ad76128be565b5b9250929050565b60008060208385031215612af657612af56127cb565b5b600083013567ffffffffffffffff811115612b1457612b136127d0565b5b612b2085828601612a89565b92509250509250929050565b600080fd5b600067ffffffffffffffff821115612b4c57612b4b612817565b5b612b5582612806565b9050602081019050919050565b82818337600083830152505050565b6000612b84612b7f84612b31565b612877565b905082815260208101848484011115612ba057612b9f612b2c565b5b612bab848285612b62565b509392505050565b600082601f830112612bc857612bc7612801565b5b8135612bd8848260208601612b71565b91505092915050565b600063ffffffff82169050919050565b612bfa81612be1565b8114612c0557600080fd5b50565b600081359050612c1781612bf1565b92915050565b60008060008060008060c08789031215612c3a57612c396127cb565b5b600087013567ffffffffffffffff811115612c5857612c576127d0565b5b612c6489828a01612bb3565b9650506020612c7589828a016127ec565b9550506040612c8689828a01612c08565b9450506060612c9789828a016127ec565b9350506080612ca889828a016127ec565b92505060a0612cb989828a016127ec565b9150509295509295509295565b60008115159050919050565b612cdb81612cc6565b82525050565b600081519050919050565b600082825260208201905092915050565b6000612d0882612ce1565b612d128185612cec565b9350612d228185602086016129d2565b612d2b81612806565b840191505092915050565b6000604082019050612d4b6000830185612cd2565b8181036020830152612d5d8184612cfd565b90509392505050565b600061ffff82169050919050565b612d7d81612d66565b8114612d8857600080fd5b50565b600081359050612d9a81612d74565b92915050565b600060208284031215612db657612db56127cb565b5b6000612dc484828501612d8b565b91505092915050565b600073ffffffffffffffffffffffffffffffffffffffff82169050919050565b6000612df882612dcd565b9050919050565b612e0881612ded565b82525050565b6000602082019050612e236000830184612dff565b92915050565b600082825260208201905092915050565b6000612e45826129b6565b612e4f8185612e29565b9350612e5f8185602086016129d2565b612e6881612806565b840191505092915050565b612e7c8161278d565b82525050565b602082016000820151612e986000850182612e73565b50505050565b612ea781612cc6565b82525050565b612eb681612ded565b82525050565b612ec581612be1565b82525050565b60006101a0830160008301518482036000860152612ee98282612e3a565b9150506020830151612efe6020860182612e73565b506040830151612f116040860182612e82565b506060830151612f246060860182612e73565b506080830151612f376080860182612e73565b5060a0830151612f4a60a0860182612e9e565b5060c0830151612f5d60c0860182612e73565b5060e0830151612f7060e0860182612ead565b50610100830151612f85610100860182612e9e565b50610120830151612f9a610120860182612ebc565b50610140830151612faf610140860182612e9e565b50610160830151612fc4610160860182612e73565b50610180830151612fd9610180860182612e73565b508091505092915050565b60006020820190508181036000830152612ffe8184612ecb565b905092915050565b60006020828403121561301c5761301b6127cb565b5b600061302a84828501612c08565b91505092915050565b60006040820190506130486000830185612cd2565b6130556020830184612cd2565b9392505050565b6000819050919050565b61306f8161305c565b811461307a57600080fd5b50565b60008135905061308c81613066565b92915050565b6000602082840312156130a8576130a76127cb565b5b60006130b68482850161307d565b91505092915050565b600081519050919050565b600082825260208201905092915050565b6000819050602082019050919050565b60006130f78383612e73565b60208301905092915050565b6000602082019050919050565b600061311b826130bf565b61312581856130ca565b9350613130836130db565b8060005b8381101561316157815161314888826130eb565b975061315383613103565b925050600181019050613134565b5085935050505092915050565b60006040820190506131836000830185612cd2565b81810360208301526131958184613110565b90509392505050565b6131a781612ded565b81146131b257600080fd5b50565b6000813590506131c48161319e565b92915050565b600080604083850312156131e1576131e06127cb565b5b60006131ef858286016127ec565b9250506020613200858286016131b5565b9150509250929050565b600081519050919050565b600082825260208201905092915050565b6000819050602082019050919050565b60408201600082015161324c6000850182612e73565b50602082015161325f6020850182612e73565b50505050565b60006132718383613236565b60408301905092915050565b6000602082019050919050565b60006132958261320a565b61329f8185613215565b93506132aa83613226565b8060005b838110156132db5781516132c28882613265565b97506132cd8361327d565b9250506001810190506132ae565b5085935050505092915050565b60006060830160008301516133006000860182612e9e565b5060208301516133136020860182612e9e565b506040830151848203604086015261332b828261328a565b9150508091505092915050565b6000602082019050818103600083015261335281846132e8565b905092915050565b600067ffffffffffffffff82169050919050565b6133778161335a565b811461338257600080fd5b50565b6000813590506133948161336e565b92915050565b6000602082840312156133b0576133af6127cb565b5b60006133be84828501613385565b91505092915050565b6000602082840312156133dd576133dc6127cb565b5b60006133eb848285016131b5565b91505092915050565b6133fd81612be1565b82525050565b600060208201905061341860008301846133f4565b92915050565b60006040820190506134336000830185612dff565b6134406020830184612dff565b9392505050565b7f4e487b7100000000000000000000000000000000000000000000000000000000600052602260045260246000fd5b6000600282049050600182168061348e57607f821691505b6020821081036134a1576134a0613447565b5b50919050565b7f5468652077696e6e657220616c726561647920636c61696d656420697473207060008201527f72697a652e000000000000000000000000000000000000000000000000000000602082015250565b60006135036025836129c1565b915061350e826134a7565b604082019050919050565b60006020820190508181036000830152613532816134f6565b9050919050565b7f54686973206c6f74746572792069736e27742066696e616c697a65642079657460008201527f2e00000000000000000000000000000000000000000000000000000000000000602082015250565b60006135956021836129c1565b91506135a082613539565b604082019050919050565b600060208201905081810360008301526135c481613588565b9050919050565b7f54686973206c6f7474657279206469646e27742067657420612077696e6e657260008201527f207965742e000000000000000000000000000000000000000000000000000000602082015250565b60006136276025836129c1565b9150613632826135cb565b604082019050919050565b600060208201905081810360008301526136568161361a565b9050919050565b7f596f75277265206e6f74207468652077696e6e65722e00000000000000000000600082015250565b60006136936016836129c1565b915061369e8261365d565b602082019050919050565b600060208201905081810360008301526136c281613686565b9050919050565b7f596f7520646f6e74206861766520616e79207469636b657420746f20636c616960008201527f6d20686572652e00000000000000000000000000000000000000000000000000602082015250565b60006137256027836129c1565b9150613730826136c9565b604082019050919050565b6000602082019050818103600083015261375481613718565b9050919050565b7f596f75206861766520616c7265616420636c61696d656420796f75722070726960008201527f7a652e0000000000000000000000000000000000000000000000000000000000602082015250565b60006137b76023836129c1565b91506137c28261375b565b604082019050919050565b600060208201905081810360008301526137e6816137aa565b9050919050565b7f4e487b7100000000000000000000000000000000000000000000000000000000600052601160045260246000fd5b60006138278261278d565b91506138328361278d565b925082820390508181111561384a576138496137ed565b5b92915050565b60006060820190506138656000830186612797565b6138726020830185612797565b61387f6040830184612797565b949350505050565b7f4e6f742072656164207965740000000000000000000000000000000000000000600082015250565b60006138bd600c836129c1565b91506138c882613887565b602082019050919050565b600060208201905081810360008301526138ec816138b0565b9050919050565b7f4665652063616e277420626520626574746572207468616e2033302500000000600082015250565b6000613929601c836129c1565b9150613934826138f3565b602082019050919050565b600060208201905081810360008301526139588161391c565b9050919050565b600060c082019050818103600083015261397981896129fc565b90506139886020830188612797565b6139956040830187612797565b6139a260608301866133f4565b6139af6080830185612797565b6139bc60a0830184612797565b979650505050505050565b7f596f752063616e277420636c61696d206265666f72652074696d65546f436c6160008201527f696d2067657420657870697265642e0000000000000000000000000000000000602082015250565b6000613a23602f836129c1565b9150613a2e826139c7565b604082019050919050565b60006020820190508181036000830152613a5281613a16565b9050919050565b6000606082019050613a6e6000830186612dff565b613a7b6020830185612797565b613a886040830184612797565b949350505050565b7f72657175657374206e6f7420666f756e64000000000000000000000000000000600082015250565b6000613ac66011836129c1565b9150613ad182613a90565b602082019050919050565b60006020820190508181036000830152613af581613ab9565b9050919050565b7f54686973206c6f74746572792068617320616c72656164792066696e616c697a60008201527f65642c207761697420666f7220726573756c7473210000000000000000000000602082015250565b6000613b586035836129c1565b9150613b6382613afc565b604082019050919050565b60006020820190508181036000830152613b8781613b4b565b9050919050565b7f596f75206e65656420746f20706179207468652065786163746c79207469636b60008201527f65742070726963652e0000000000000000000000000000000000000000000000602082015250565b6000613bea6029836129c1565b9150613bf582613b8e565b604082019050919050565b60006020820190508181036000830152613c1981613bdd565b9050919050565b6000613c2b8261278d565b9150613c368361278d565b9250828201905080821115613c4e57613c4d6137ed565b5b92915050565b6000608082019050613c696000830187612797565b613c7660208301866133f4565b613c836040830185612797565b613c906060830184612797565b95945050505050565b6000604082019050613cae6000830185612797565b613cbb6020830184612797565b9392505050565b7f4f776e61626c653a206e6577206f776e657220697320746865207a65726f206160008201527f6464726573730000000000000000000000000000000000000000000000000000602082015250565b6000613d1e6026836129c1565b9150613d2982613cc2565b604082019050919050565b60006020820190508181036000830152613d4d81613d11565b9050919050565b7f4e487b7100000000000000000000000000000000000000000000000000000000600052603260045260246000fd5b7f4e487b7100000000000000000000000000000000000000000000000000000000600052601260045260246000fd5b6000613dbd8261278d565b9150613dc88361278d565b925082613dd857613dd7613d83565b5b828206905092915050565b7f4c6f7474657279206e6565647320746f20626520726573657465640000000000600082015250565b6000613e19601b836129c1565b9150613e2482613de3565b602082019050919050565b60006020820190508181036000830152613e4881613e0c565b9050919050565b7f5265656e7472616e637947756172643a207265656e7472616e742063616c6c00600082015250565b6000613e85601f836129c1565b9150613e9082613e4f565b602082019050919050565b60006020820190508181036000830152613eb481613e78565b9050919050565b6000613ec68261278d565b9150613ed18361278d565b9250828202613edf8161278d565b91508282048414831517613ef657613ef56137ed565b5b5092915050565b6000613f088261278d565b9150613f138361278d565b925082613f2357613f22613d83565b5b828204905092915050565b7f4974204469646e74207265616368206d696e207469636b657473207965742e00600082015250565b6000613f64601f836129c1565b9150613f6f82613f2e565b602082019050919050565b60006020820190508181036000830152613f9381613f57565b9050919050565b7f4c6f747465727920616c72656164792066696e616c697a65642e000000000000600082015250565b6000613fd0601a836129c1565b9150613fdb82613f9a565b602082019050919050565b60006020820190508181036000830152613fff81613fc3565b9050919050565b7f4f776e61626c653a2063616c6c6572206973206e6f7420746865206f776e6572600082015250565b600061403c6020836129c1565b915061404782614006565b602082019050919050565b6000602082019050818103600083015261406b8161402f565b9050919050565b60006040820190506140876000830185612797565b81810360208301526140998184613110565b90509392505050565b6000815490506140b181613476565b9050919050565b60008190508160005260206000209050919050565b60008190508160005260206000209050919050565b60006020601f8301049050919050565b600082821b905092915050565b60006008830261412f7fffffffffffffffffffffffffffffffffffffffffffffffffffffffffffffffff826140f2565b61413986836140f2565b95508019841693508086168417925050509392505050565b6000819050919050565b600061417661417161416c8461278d565b614151565b61278d565b9050919050565b6000819050919050565b6141908361415b565b6141a461419c8261417d565b8484546140ff565b825550505050565b600090565b6141b96141ac565b6141c4818484614187565b505050565b5b818110156141e8576141dd6000826141b1565b6001810190506141ca565b5050565b601f82111561422d576141fe816140b8565b614207846140e2565b81016020851015614216578190505b61422a614222856140e2565b8301826141c9565b50505b505050565b600082821c905092915050565b600061425060001984600802614232565b1980831691505092915050565b6000614269838361423f565b9150826002028217905092915050565b81810361428757505061435f565b614290826140a2565b67ffffffffffffffff8111156142a9576142a8612817565b5b6142b38254613476565b6142be8282856141ec565b6000601f8311600181146142ed57600084156142db578287015490505b6142e5858261425d565b865550614358565b601f1984166142fb876140cd565b9650614306866140b8565b60005b8281101561432e57848901548255600182019150600185019450602081019050614309565b8683101561434b5784890154614347601f89168261423f565b8355505b6001600288020188555050505b5050505050505b565b61436a8161305c565b82525050565b6143798161335a565b82525050565b61438881612d66565b82525050565b600060a0820190506143a36000830188614361565b6143b06020830187614370565b6143bd604083018661437f565b6143ca60608301856133f4565b6143d760808301846133f4565b9695505050505050565b6000815190506143f0816127d5565b92915050565b60006020828403121561440c5761440b6127cb565b5b600061441a848285016143e1565b91505092915050565b60006040820190506144386000830185612797565b61444560208301846133f4565b939250505056fea2646970667358221220ecee2b98e8a4ae42e89bf3d4de23a58e8edbb19b1ddac31979fa8f0c2fdd430864736f6c63430008110033",
  "immutableReferences": {
    "49": [
      {
        "length": 32,
        "start": 1624
      },
      {
        "length": 32,
        "start": 1708
      }
    ]
  },
  "source": "// SPDX-License-Identifier: MIT\r\npragma solidity ^0.8.17;\r\n\r\nimport \"@chainlink/contracts/src/v0.8/interfaces/VRFCoordinatorV2Interface.sol\";\r\nimport \"@chainlink/contracts/src/v0.8/VRFConsumerBaseV2.sol\";\r\nimport \"@chainlink/contracts/src/v0.8/AutomationCompatible.sol\";\r\n\r\nimport \"@openzeppelin/contracts/access/Ownable.sol\";\r\nimport \"@openzeppelin/contracts/utils/Counters.sol\";\r\nimport \"@openzeppelin/contracts/security/ReentrancyGuard.sol\";\r\n\r\nimport \"./VRFV2Consumer.sol\";\r\n\r\ncontract Lottery is\r\n    Ownable,\r\n    ReentrancyGuard,\r\n    VRFV2Consumer,\r\n    AutomationCompatibleInterface\r\n{\r\n    using Counters for Counters.Counter;\r\n\r\n    struct Ticket {\r\n        uint256 ticketId;\r\n        uint256 timestamp;\r\n    }\r\n\r\n    struct User {\r\n        bool hasTicket;\r\n        bool claimed;\r\n        Ticket[] tickets;\r\n    }\r\n\r\n    struct LotteryStruct {\r\n        string name;\r\n        uint256 ticketPrice;\r\n        Counters.Counter ticketsCount;\r\n        uint256 startedTime;\r\n        uint256 balance;\r\n        bool finalized;\r\n        uint256 indexChainLink;\r\n        address winner;\r\n        bool claimed;\r\n        uint32 minTicket;\r\n        bool finishTrigger;\r\n        uint256 timeToFinish;\r\n        uint256 timeToClaim;\r\n    }\r\n\r\n    mapping(uint256 => mapping(address => User)) ticketOwners;\r\n    mapping(uint256 => mapping(uint256 => address)) tickets;\r\n    mapping(uint256 => LotteryStruct) lottery;\r\n\r\n    Counters.Counter public lotteryId;\r\n    uint256 public fee;\r\n    uint256 public configFinishTime;\r\n    uint256 public configTimeToClaim;\r\n    uint32 public minTicket;\r\n    uint256 public ticketPrice;\r\n    string public lotteryName;\r\n\r\n    event TicketBought(\r\n        address indexed buyer,\r\n        uint256 price,\r\n        uint256 ticketNumber\r\n    );\r\n    event MinTicketsReached(\r\n        uint256 ticketNumber,\r\n        uint32 minTickets,\r\n        uint256 balance,\r\n        uint256 finishTime\r\n    );\r\n    event LotteryFinalized(\r\n        address owner,\r\n        uint256 totalValue,\r\n        uint256 ticketAmount\r\n    );\r\n    event ClaimedPrize(\r\n        address indexed winner,\r\n        uint256 lotteryIndex,\r\n        uint256 totalPrize,\r\n        uint256 fee\r\n    );\r\n    event ClaimedExpiredPrize(\r\n        address indexed winner,\r\n        address owner,\r\n        uint256 lotteryIndex,\r\n        uint256 totalPrize\r\n    );\r\n    event ChangedProperties(\r\n        address indexed owner,\r\n        string name,\r\n        uint256 ticketPrize,\r\n        uint256 fee,\r\n        uint32 minTicket,\r\n        uint256 configFinishTime,\r\n        uint256 configTimeToClaim\r\n    );\r\n\r\n    constructor(\r\n        uint64 _subscriptionId,\r\n        address _cordinatorAddress,\r\n        bytes32 _keyHash,\r\n        string memory _name,\r\n        uint256 _ticketPrice,\r\n        uint32 _minTicket,\r\n        uint256 _fee\r\n    ) VRFV2Consumer(_subscriptionId, _cordinatorAddress, _keyHash) {\r\n        uint256 currentLottery = lotteryId.current();\r\n\r\n        lottery[currentLottery].name = _name;\r\n        lottery[currentLottery].ticketPrice = _ticketPrice;\r\n        lottery[currentLottery].minTicket = _minTicket;\r\n        lottery[currentLottery].startedTime = block.timestamp;\r\n\r\n        fee = _fee;\r\n        lotteryName = _name;\r\n        configFinishTime = 10 minutes;\r\n        configTimeToClaim = 10 minutes;\r\n        ticketPrice = _ticketPrice;\r\n        minTicket = _minTicket;\r\n    }\r\n\r\n    function buyTicket() external payable nonReentrant {\r\n        uint256 currentLottery = lotteryId.current();\r\n        require(\r\n            !lottery[currentLottery].finalized,\r\n            \"This lottery has already finalized, wait for results!\"\r\n        );\r\n        require(\r\n            lottery[currentLottery].ticketPrice == msg.value,\r\n            \"You need to pay the exactly ticket price.\"\r\n        );\r\n\r\n        uint256 currentLotteryPosition = lottery[currentLottery]\r\n            .ticketsCount\r\n            .current();\r\n        lottery[currentLottery].ticketsCount.increment();\r\n\r\n        ticketOwners[currentLottery][msg.sender].hasTicket = true;\r\n        ticketOwners[currentLottery][msg.sender].claimed = false;\r\n        ticketOwners[currentLottery][msg.sender].tickets.push(\r\n            Ticket(currentLotteryPosition, block.timestamp)\r\n        );\r\n\r\n        tickets[currentLottery][currentLotteryPosition] = msg.sender;\r\n        lottery[currentLottery].balance += msg.value;\r\n\r\n        uint256 nextLotteryPosition = lottery[currentLottery]\r\n            .ticketsCount\r\n            .current();\r\n\r\n        if (\r\n            !lottery[currentLottery].finishTrigger &&\r\n            nextLotteryPosition >= lottery[currentLottery].minTicket\r\n        ) {\r\n            lottery[currentLottery].finishTrigger = true;\r\n            lottery[currentLottery].timeToFinish =\r\n                block.timestamp +\r\n                configFinishTime;\r\n\r\n            emit MinTicketsReached(\r\n                nextLotteryPosition,\r\n                lottery[currentLottery].minTicket,\r\n                lottery[currentLottery].balance,\r\n                lottery[currentLottery].timeToFinish\r\n            );\r\n        }\r\n\r\n        emit TicketBought(msg.sender, msg.value, currentLottery);\r\n    }\r\n\r\n    function finalizeLottery() private {\r\n        uint256 currentLottery = lotteryId.current();\r\n        uint256 currentLotteryPosition = lottery[currentLottery]\r\n            .ticketsCount\r\n            .current();\r\n\r\n        require(\r\n            lottery[currentLottery].minTicket <= currentLotteryPosition,\r\n            \"It Didnt reach min tickets yet.\"\r\n        );\r\n\r\n        require(\r\n            !lottery[currentLottery].finalized,\r\n            \"Lottery already finalized.\"\r\n        );\r\n\r\n        lottery[currentLottery].finalized = true;\r\n        lottery[currentLottery].indexChainLink = requestRandomWords(1);\r\n        emit LotteryFinalized(\r\n            msg.sender,\r\n            lottery[currentLottery].balance,\r\n            lottery[currentLottery].ticketsCount.current()\r\n        );\r\n    }\r\n\r\n    function fulfillRandomWords(\r\n        uint256 _requestId,\r\n        uint256[] memory _randomWords\r\n    ) internal override {\r\n        super.fulfillRandomWords(_requestId, _randomWords);\r\n        uint256 currentLottery = lotteryId.current();\r\n        uint256 currentLotteryPosition = lottery[currentLottery]\r\n            .ticketsCount\r\n            .current();\r\n        if (_requestId == lottery[currentLottery].indexChainLink) {\r\n            lottery[currentLottery].winner = tickets[currentLottery][\r\n                _randomWords[0] % currentLotteryPosition\r\n            ];\r\n            lottery[currentLottery].timeToClaim =\r\n                block.timestamp +\r\n                configTimeToClaim;\r\n            require(resetLottery(), \"Lottery needs to be reseted\");\r\n        }\r\n    }\r\n\r\n    function claim(uint256 lotteryIndex) external nonReentrant {\r\n        require(\r\n            !lottery[lotteryIndex].claimed,\r\n            \"The winner already claimed its prize.\"\r\n        );\r\n        require(\r\n            lottery[lotteryIndex].finalized,\r\n            \"This lottery isn't finalized yet.\"\r\n        );\r\n        require(\r\n            lottery[lotteryIndex].winner != address(0),\r\n            \"This lottery didn't get a winner yet.\"\r\n        );\r\n        require(\r\n            lottery[lotteryIndex].winner == msg.sender,\r\n            \"You're not the winner.\"\r\n        );\r\n        require(\r\n            ticketOwners[lotteryIndex][msg.sender].hasTicket,\r\n            \"You dont have any ticket to claim here.\"\r\n        );\r\n        require(\r\n            !ticketOwners[lotteryIndex][msg.sender].claimed,\r\n            \"You have alread claimed your prize.\"\r\n        );\r\n        lottery[lotteryIndex].claimed = true;\r\n        ticketOwners[lotteryIndex][msg.sender].hasTicket = false;\r\n        ticketOwners[lotteryIndex][msg.sender].claimed = true;\r\n\r\n        uint256 _feeAmount = _calcFee(lottery[lotteryIndex].balance);\r\n        uint256 prize = lottery[lotteryIndex].balance - _feeAmount;\r\n\r\n        payable(owner()).transfer(_feeAmount);\r\n        payable(msg.sender).transfer(prize);\r\n        emit ClaimedPrize(msg.sender, lotteryIndex, prize, _feeAmount);\r\n    }\r\n\r\n    function claimExpiredLottery(uint256 lotteryIndex) external onlyOwner {\r\n        require(\r\n            !lottery[lotteryIndex].claimed,\r\n            \"The winner already claimed its prize.\"\r\n        );\r\n        require(\r\n            lottery[lotteryIndex].finalized,\r\n            \"This lottery isn't finalized yet.\"\r\n        );\r\n        require(\r\n            lottery[lotteryIndex].winner != address(0),\r\n            \"This lottery didn't get a winner yet.\"\r\n        );\r\n        require(\r\n            lottery[lotteryIndex].timeToClaim < block.timestamp,\r\n            \"You can't claim before timeToClaim get expired.\"\r\n        );\r\n\r\n        lottery[lotteryIndex].claimed = true;\r\n\r\n        payable(owner()).transfer(lottery[lotteryIndex].balance);\r\n        emit ClaimedExpiredPrize(lottery[lotteryIndex].winner, msg.sender, lotteryIndex, lottery[lotteryIndex].balance);\r\n    }\r\n\r\n    function resetLottery() private returns (bool) {\r\n        lotteryId.increment();\r\n        uint256 nextLottery = lotteryId.current();\r\n\r\n        lottery[nextLottery].name = lotteryName;\r\n        lottery[nextLottery].ticketPrice = ticketPrice;\r\n        lottery[nextLottery].minTicket = minTicket;\r\n        lottery[nextLottery].startedTime = block.timestamp;\r\n\r\n        return true;\r\n    }\r\n\r\n    function _calcFee(uint256 amount) private view returns (uint256) {\r\n        return (amount * fee) / 100;\r\n    }\r\n\r\n    function setProperties(\r\n        string memory _name,\r\n        uint256 _ticketPrice,\r\n        uint32 _minTicket,\r\n        uint256 _configFinishTime,\r\n        uint256 _configTimeToClaim,\r\n        uint256 _fee\r\n    ) external onlyOwner {\r\n        require(_fee <= 30, \"Fee can't be better than 30%\");\r\n\r\n        fee = _fee;\r\n        configFinishTime = _configFinishTime;\r\n        configTimeToClaim = _configTimeToClaim;\r\n        ticketPrice = _ticketPrice;\r\n        minTicket = _minTicket;\r\n        emit ChangedProperties(\r\n            msg.sender,\r\n            _name,\r\n            _ticketPrice,\r\n            _fee,\r\n            _minTicket,\r\n            _configFinishTime,\r\n            _configTimeToClaim\r\n        );\r\n    }\r\n\r\n    function getLotteryStatus(\r\n        uint256 _lotteryId\r\n    ) public view returns (LotteryStruct memory _lottery) {\r\n        return lottery[_lotteryId];\r\n    }\r\n\r\n    function getUserStatus(\r\n        uint256 _lotteryId,\r\n        address _user\r\n    ) public view returns (User memory _returnedUser) {\r\n        return ticketOwners[_lotteryId][_user];\r\n    }\r\n\r\n    function checkUpkeep(\r\n        bytes calldata /* checkData */\r\n    )\r\n        external\r\n        view\r\n        override\r\n        returns (bool upkeepNeeded, bytes memory /* performData */)\r\n    {\r\n        uint256 currentLottery = lotteryId.current();\r\n        upkeepNeeded = (lottery[currentLottery].finishTrigger &&\r\n            block.timestamp > lottery[currentLottery].timeToFinish);\r\n    }\r\n\r\n    function performUpkeep(bytes calldata /* performData */) external override {\r\n        uint256 currentLottery = lotteryId.current();\r\n\r\n        require(\r\n            (lottery[currentLottery].finishTrigger &&\r\n                block.timestamp > lottery[currentLottery].timeToFinish),\r\n            \"Not read yet\"\r\n        );\r\n        finalizeLottery();\r\n    }\r\n}\r\n",
  "sourcePath": "C:\\projetos\\pessoais\\LottoCrypto\\Truffle\\contracts\\Lottery.sol",
  "compiler": {
    "name": "solc",
    "version": "0.8.17+commit.8df45f5f.Emscripten.clang"
  },
  "schemaVersion": "3.4.13",
  "updatedAt": "2023-04-06T20:18:51.507Z",
  "networkType": "ethereum",
  "devdoc": {
    "kind": "dev",
    "methods": {
      "owner()": {
        "details": "Returns the address of the current owner."
      },
      "renounceOwnership()": {
        "details": "Leaves the contract without owner. It will not be possible to call `onlyOwner` functions anymore. Can only be called by the current owner. NOTE: Renouncing ownership will leave the contract without an owner, thereby removing any functionality that is only available to the owner."
      },
      "transferOwnership(address)": {
        "details": "Transfers ownership of the contract to a new account (`newOwner`). Can only be called by the current owner."
      }
    },
    "version": 1
  },
  "userdoc": {
    "kind": "user",
    "methods": {},
    "version": 1
  }
}